:020000040000fa
:080000000002040000000000f2
:020000040000fa
:04000800920400005e
:020000040000fa
:04000c00920400005a
:020000040000fa
:040010009204000056
:020000040000fa
:040014009204000052
:020000040000fa
:04001800920400004e
:020000040000fa
:04001c00920400004a
:020000040000fa
:040020009204000046
:020000040000fa
:040024009204000042
:020000040000fa
:04002800920400003e
:020000040000fa
:04002c00920400003a
:020000040000fa
:040030009204000036
:020000040000fa
:040034009204000032
:020000040000fa
:04003800920400002e
:020000040000fa
:04003c00920400002a
:020000040000fa
:040040009204000026
:020000040000fa
:040044009204000022
:020000040000fa
:04004800920400001e
:020000040000fa
:04004c00920400001a
:020000040000fa
:040050009204000016
:020000040000fa
:040054001a0300008b
:020000040000fa
:04005800c8020000da
:020000040000fa
:04005c00920400000a
:020000040000fa
:040060009204000006
:020000040000fa
:040064009204000002
:020000040000fa
:0400680092040000fe
:020000040000fa
:04006c0092040000fa
:020000040000fa
:0400700092040000f6
:020000040000fa
:0400740092040000f2
:020000040000fa
:0400780092040000ee
:020000040000fa
:04007c0092040000ea
:020000040000fa
:0400800092040000e6
:020000040000fa
:0400840092040000e2
:020000040000fa
:0400880092040000de
:020000040000fa
:04008c0092040000da
:020000040000fa
:0400900092040000d6
:020000040000fa
:0400940092040000d2
:020000040000fa
:0400980092040000ce
:020000040000fa
:04009c0092040000ca
:020000040000fa
:0400a000fc0300005d
:020000040000fa
:0400a400b0030000a5
:020000040000fa
:0400a80092040000be
:020000040000fa
:0400ac0092040000ba
:020000040000fa
:0400b00092040000b6
:020000040000fa
:0400b40092040000b2
:020000040000fa
:0400b80092040000ae
:020000040000fa
:0400bc0092040000aa
:020000040000fa
:0400c00092040000a6
:020000040000fa
:0400c40092040000a2
:020000040000fa
:0400c800920400009e
:020000040000fa
:0400cc00920400009a
:020000040000fa
:0400d0009204000096
:020000040000fa
:0400d4009204000092
:020000040000fa
:0400d800920400008e
:020000040000fa
:0400dc00920400008a
:020000040000fa
:0400e0009204000086
:020000040000fa
:0400e4009204000082
:020000040000fa
:0400e800920400007e
:020000040000fa
:0400ec00920400007a
:020000040000fa
:0400f0009204000076
:020000040000fa
:0400f4009204000072
:020000040000fa
:0400f800920400006e
:020000040000fa
:0400fc00920400006a
:020000040000fa
:040100009204000065
:020000040000fa
:040104009204000061
:020000040000fa
:04010800920400005d
:020000040000fa
:04010c009204000059
:020000040000fa
:040110009204000055
:020000040000fa
:040114009204000051
:020000040000fa
:04011800920400004d
:020000040000fa
:04011c009204000049
:020000040000fa
:040120009204000045
:020000040000fa
:040124009204000041
:020000040000fa
:04012800920400003d
:020000040000fa
:04012c004803000084
:020000040000fa
:040130002a0400009d
:020000040000fa
:040134009204000031
:020000040000fa
:04013800920400002d
:020000040000fa
:04013c009204000029
:020000040000fa
:040140009204000025
:020000040000fa
:040144009204000021
:020000040000fa
:04014800920400001d
:020000040000fa
:04014c009204000019
:020000040000fa
:040150009204000015
:020000040000fa
:040154009204000011
:020000040000fa
:04015800920400000d
:020000040000fa
:04015c009204000009
:020000040000fa
:040160009204000005
:020000040000fa
:040164009204000001
:020000040000fa
:04020800920400005c
:020000040000fa
:04020c009204000058
:020000040000fa
:040210009204000054
:020000040000fa
:040214009204000050
:020000040000fa
:04021800920400004c
:020000040000fa
:04021c009204000048
:020000040000fa
:040220009204000044
:020000040000fa
:040224009204000040
:020000040000fa
:04022800920400003c
:020000040000fa
:04022c009204000038
:020000040000fa
:040230009204000034
:020000040000fa
:040234009204000030
:020000040000fa
:04023800920400002c
:020000040000fa
:04023c009204000028
:020000040000fa
:040240009204000024
:020000040000fa
:040244009204000020
:020000040000fa
:04024800920400001c
:020000040000fa
:04024c009204000018
:020000040000fa
:040250009204000014
:020000040000fa
:040254001a03000089
:020000040000fa
:04025800c8020000d8
:020000040000fa
:04025c009204000008
:020000040000fa
:040260009204000004
:020000040000fa
:040264009204000000
:020000040000fa
:0402680092040000fc
:020000040000fa
:04026c0092040000f8
:020000040000fa
:0402700092040000f4
:020000040000fa
:0402740092040000f0
:020000040000fa
:0402780092040000ec
:020000040000fa
:04027c0092040000e8
:020000040000fa
:0402800092040000e4
:020000040000fa
:0402840092040000e0
:020000040000fa
:0402880092040000dc
:020000040000fa
:04028c0092040000d8
:020000040000fa
:0402900092040000d4
:020000040000fa
:0402940092040000d0
:020000040000fa
:0402980092040000cc
:020000040000fa
:04029c0092040000c8
:020000040000fa
:0402a000fc0300005b
:020000040000fa
:0402a400b0030000a3
:020000040000fa
:0402a80092040000bc
:020000040000fa
:0402ac0092040000b8
:020000040000fa
:0402b00092040000b4
:020000040000fa
:0402b40092040000b0
:020000040000fa
:0402b80092040000ac
:020000040000fa
:0402bc0092040000a8
:020000040000fa
:0402c00092040000a4
:020000040000fa
:0402c40092040000a0
:020000040000fa
:0402c800920400009c
:020000040000fa
:0402cc009204000098
:020000040000fa
:0402d0009204000094
:020000040000fa
:0402d4009204000090
:020000040000fa
:0402d800920400008c
:020000040000fa
:0402dc009204000088
:020000040000fa
:0402e0009204000084
:020000040000fa
:0402e4009204000080
:020000040000fa
:0402e800920400007c
:020000040000fa
:0402ec009204000078
:020000040000fa
:0402f0009204000074
:020000040000fa
:0402f4009204000070
:020000040000fa
:0402f800920400006c
:020000040000fa
:0402fc009204000068
:020000040000fa
:040300009204000063
:020000040000fa
:04030400920400005f
:020000040000fa
:04030800920400005b
:020000040000fa
:04030c009204000057
:020000040000fa
:040310009204000053
:020000040000fa
:04031400920400004f
:020000040000fa
:04031800920400004b
:020000040000fa
:04031c009204000047
:020000040000fa
:040320009204000043
:020000040000fa
:04032400920400003f
:020000040000fa
:04032800920400003b
:020000040000fa
:04032c004803000082
:020000040000fa
:040330002a0400009b
:020000040000fa
:04033400920400002f
:020000040000fa
:04033800920400002b
:020000040000fa
:04033c009204000027
:020000040000fa
:040340009204000023
:020000040000fa
:04034400920400001f
:020000040000fa
:04034800920400001b
:020000040000fa
:04034c009204000017
:020000040000fa
:040350009204000013
:020000040000fa
:04035400920400000f
:020000040000fa
:04035800920400000b
:020000040000fa
:04035c009204000007
:020000040000fa
:040360009204000003
:020000040000fa
:0403640092040000ff
:020000040000fa
:100400008f8420000e7f24000e0188000000000071
:10041000000020000000e000020032000001200087
:100420002002880014000700610107000000e000be
:1004300003003a008027210001002000020037005d
:100440000000200001002000810f70000100320038
:1004500014000700000020000000e000020032004d
:100460000000020000000000bc12020000000000ba
:100470000040da000000fe004440a9000000200017
:100480000000e0000300320000002000a00188000e
:100490004440a800000006008a1f78008b1f7800e7
:1004a0000000060091018800800478000000eb0045
:1004b0001a003700e284440032a0b4009905ba0063
:1004c000e284440032a0b4009906ba00e2844400f9
:1004d00032a0b4000006eb00476fde00fd07b2005b
:1004e000636ce10003003a00ebff07000000eb0043
:1004f0000a003700606ce10004003a00005deb0088
:100500008b05e900fdff3e00040037006168e10053
:10051000010032000086eb000b00070019c7ba008b
:100520001905ba000e04e00003003a000a00e000da
:10053000e0ff3a0000000600fe07b2009e018800be
:100540008a047800f5ff3700395dba008b05e900b1
:100550000c003200295dba008b05e900080032006a
:100560000c00e00003003a00e284440032a0b40032
:10057000f5ff370019ddba008b05e900faff3a00f4
:100580008904e800e184440032a0b40000000600c1
:100590003600f800809fbe00829fbe00849fbe0090
:1005a000869fbe000200fa0000408000930607000c
:1005b0000000e00002003a0023a2a90023e2a80004
:1005c0007a0407000000e00010003a0000408000bc
:1005d0008a0607000000e0000c003a000200370025
:1005e0000e007800a3040700700407000000e0007c
:1005f00008003a00004080008e00780037060700af
:100600000000e000f6ff3a00030037008580a900f3
:1006100001003700000000000080fa004f03be0018
:100620004f02be004f01be004f00be003600f90071
:10063000004006003600f800809fbe00829fbe008a
:10064000849fbe00869fbe000200fa0005003700ae
:100650000e0078007f0407009e4078001040800064
:10066000d1050700670407000000e000f8ff320032
:100670008560a9000080fa004f03be004f02be0053
:100680004f01be004f00be003600f90000400600da
:100690003600f800809fbe00829fbe00849fbe008f
:1006a000869fbe000200fa00100020005040880023
:1006b00050c1b30008e8b700808020006d04070037
:1006c00010118000620060000000e00005003200b0
:1006d00010118000640060000000e00001003a009a
:1006e0002222a90010118000640060000000e000d8
:1006f0001300320010118000620060000000e00072
:100700000f003a00010037000000000010118000c7
:10071000640060000000e00002003a000e00780073
:100720004c04070010118000640060000000e0002d
:10073000f5ff32000e0078004604070000000000bc
:100740008c20a9000080fa004f03be004f02be00bb
:100750004f01be004f00be003600f9000040060009
:100760003600f800809fbe00829fbe00849fbe00be
:10077000869fbe000200fa00204080001f0607008e
:100780000000e00002003a0033a2a90033e2a80012
:10079000530407000000e0000f003a0020408000f2
:1007a000160607000000e0000b003a0002003700c8
:1007b0000e0078007c040700490407000000e000f8
:1007c00005003a00204080008e007800c305070035
:1007d0000000e000f6ff3a0087e0a9000080fa0080
:1007e0004f03be004f02be004f01be004f00be00cf
:1007f0003600f900004006003600f800809fbe0079
:10080000829fbe00849fbe00869fbe000200fa0049
:10081000050037000e0078005b0407009e4078005a
:100820003040800060050700430407000000e0003e
:10083000f8ff320087c0a9000080fa004f03be0015
:100840004f02be004f01be004f00be003600f9004f
:10085000004006003600f800809fbe00829fbe0068
:10086000849fbe00869fbe000200fa001000200098
:100870006040880050c1b30008e8b70080802000c5
:100880004904070090118000620060000000e00051
:100890000500320090118000640060000000e0005c
:1008a00001003a003222a90090118000640060002b
:1008b0000000e00013003200901180006200600030
:1008c0000000e0000f003a000100370000000000c7
:1008d00090118000640060000000e00002003a0017
:1008e0000e0078002804070090118000640060006a
:1008f0000000e000f5ff32000e007800220407003f
:10090000000000008c40a9000080fa004f03be00e8
:100910004f02be004f01be004f00be003600f9007e
:10092000004006000040da000000fe00889fbe0084
:1009300080047800304280000000e00004003a00ab
:100940000e0007000084eb000000e0000800350006
:10095000384280000900e000050032000900440030
:10096000060007000000e00001003d000084eb00ed
:10097000080078004f04be000000060080007800e8
:100980000100e00003003a0000002000304288002f
:10099000000005000080eb0002002000828f500064
:1009a00002003e00314288000000eb00000006001b
:1009b000000005006900e100040035006d00e10061
:1009c000030034000002b100010032000000050005
:1009d00010000500889fbe000004780001428000de
:1009e0000100e00002003200010078000d00370035
:1009f000114280002084200004003700910f540031
:100a0000250036000180e800910090000100e00020
:100a1000faff3a0010003700920f54001e00360013
:100a20000280e800100178000200e000faff3a00be
:100a3000110178001142800020842000040037005a
:100a4000910f5400140036000180e80091009000de
:100a5000828f5000faff3a0029428000888f5400ac
:100a60000100310088047800090078003600070092
:100a70000000e00004003a00888f540005003200b6
:100a80008904d100f5ff3700091878003800070005
:100a9000d2ff37000000eb004f04be00000006004c
:100aa000881f7800630440000800a1008000eb006c
:100ab000800f540021003600e30f540001003e0077
:100ac0004800200008007800c2ff07008000eb000b
:100ad0000000e000190032009000780091017800d9
:100ae00064815100880f5100030031001101900012
:100af00002087800070037000881400002087800eb
:100b00009101900013019800100178001109140060
:100b100088087800100178000000eb000200e00077
:100b200004003200920190000300e0000100320056
:100b30000280e800004288008180e800010078001f
:100b40004f04780000000600800078000000eb00f1
:100b50000100e000050034000100780073ff070089
:100b6000e10f400001003a000000eb000000060029
:100b70000000e0002f003200c0017800e38f510038
:100b80002c0036000308a3002a003a00114280001e
:100b90000100e00002003200810f5000040031002b
:100ba000110098001042880016003700820078007b
:100bb000110190000200e00002003200800f51009d
:100bc000faff39001102780084824000850f50003e
:100bd00018003900808f520003003a008308420059
:100be00001007800070037000200e0000300320037
:100bf00083014000830f51000e003900120098005d
:100c000090009800900090000100e0000900320080
:100c100010014000828f500006003a00028420003c
:100c20000009eb00100178001108410091009000cc
:080c300011009800000006000d
:020000040000fa
:100c38000400fa0010002000000f780010002000c7
:100c480010079800c08220009040780020c5b300ab
:100c580080cf500005003200c0822000904078000c
:100c680020c7b30080cf500002003a0010c0b30084
:100c780081013700c082200090407800c0c4b300d2
:100c880080cf500005003200c082200090407800dc
:100c9800c0c6b30080cf500002003a0020c0b300a5
:100ca80075013700c08220009040780010c4b3005e
:100cb80080cf500005003200c082200090407800ac
:100cc80010c6b30080cf500002003a0030c0b30015
:100cd80069013700c082200090407800d0c4b3007a
:100ce80080cf500016003200c0822000904078006b
:100cf800d0c6b30080cf50001c003a001100370066
:100d0800c08220001e004000104078000080fb00d8
:100d18000003b100e90f5000020036000040eb006c
:100d2800550137001e007800e30f50000200340020
:100d38000040eb00500137001e0fe80001003700ab
:100d480000000000c08220001e0040001040780013
:100d5800ed4f5000030032001e007800e40f5000f1
:100d6800e7ff340050c0b30043013700c0822000c1
:100d78009040780050c5b30080cf50000500320085
:100d8800c08220009040780050c7b30080cf500048
:100d980002003a0060c0b30037013700c08220006b
:100da8009040780040c4b30080cf50000500320066
:100db800c08220009040780040c6b30080cf500029
:100dc80002003a0070c0b3002b013700c082200037
:100dd8009040780050c4b30080cf50000500320026
:100de800c08220009040780050c6b30080cf5000e9
:100df80002003a0080c0b3001f013700c082200003
:100e08009040780020c4b30080cf50000500320025
:100e1800c08220009040780020c6b30080cf5000e8
:100e280002003a0090c0b30013013700c0822000ce
:100e38009040780030c4b30080cf500005003200e5
:100e4800c08220009040780030c6b30080cf5000a8
:100e580009003a00d08220009040780020c3b300f7
:100e680080cf500002003a00a0c0b3000201370052
:100e780040c0b30000013700c082200090407800d5
:100e880070c5b30080cf500044003200c0822000fb
:100e98009040780070c7b30080cf50004b003a00f4
:100ea8003f003700c08220001e004000104078003c
:100eb8000080fb000003b100e90f50002a003e004b
:100ec8001e00e800c1822000614078000080fb001d
:100ed8000003b100e90f500023003e001e80e80027
:100ee800c1822000614078000080fb000003b1004f
:100ef800e90f50001c003e009e007800638040000f
:100f0800c1822000e1407800e0c2b30080cf5000e9
:100f18000a003a009e00780064804000c1822000e8
:100f2800614078000080fb000003b100e90f500029
:100f3800040036000040eb00cf0037000040eb0013
:100f4800cd0037009e00780065804000c1822000f7
:100f5800614078000080fb0094fe07000000e0007c
:100f680003003a000b0037000040eb00c2003700d6
:100f78001e009000e10f500006003a0060002000bb
:100f8800000f78001e0090000000e800100798008d
:100f9800030037000040eb00b700370000000000f6
:100fa8009e00780063804000c18220006140780084
:100fb800ed4f5000030032001e009000e20f500079
:100fc800b8ff3400b0c0b300ab003700c0822000c7
:100fd8009040780030c5b30080cf50000500320043
:100fe800c08220009040780030c7b30080cf500006
:100ff80002003a00c0c0b3009f003700c082200042
:1010080090407800a0c5b30080cf500005003200a2
:10101800c082200090407800a0c7b30080cf500065
:101028001c003a00d08220009040780010c3b30022
:1010380080cf500002003a00d0c0b3008e003700c5
:10104800d08220009040780020c3b30080cf5000a9
:1010580002003a00e0c0b30087003700d0822000c9
:101068009040780030c3b30080cf500002003a00af
:10107800f0c0b30080003700d08220009040780094
:1010880040c3b30080cf500002003a0000c1b30053
:1010980079003700c08220009040780000c5b30076
:1010a80080cf500005003200c082200090407800b8
:1010b80000c7b30080cf50006e003a002000200027
:1010c800000f78003e003700c08220001e0040005c
:1010d800104078000080fb000003b100e90f5000c9
:1010e8002a003e001e00e800c1822000614078000e
:1010f8000080fb000003b100e90f500023003e0010
:101108001e80e800c1822000614078000080fb005a
:101118000003b100e90f50001c003e009e0078005b
:1011280063804000c1822000e1407800e0c2b30043
:1011380080cf50000a003a009e007800648040008a
:10114800c1822000614078000080fb000003b100ec
:10115800e90f5000040036000040eb00460037005d
:101168000040eb00440037009e0078006580400096
:10117800c1822000614078000080fb000bfe070060
:101188000000e00003003a000b0037000040eb00cd
:10119800390037001e009000e10f500006003a00a9
:1011a80080002000000f78001e0090000000e8007a
:1011b80010079800020037000040eb002e003700af
:1011c8009e00780065804000c18220006140780060
:1011d800ed4f5000030032001e009000e20f500057
:1011e800b9ff3400d08220009040780010c4b300ca
:1011f80080cf500005003200d08220009040780057
:1012080010c6b30080cf500002003a0010c1b300ee
:1012180019003700d08220009040780050c4b300f5
:1012280080cf500005003200d08220009040780026
:1012380050c6b30080cf500002003a0020c1b3006e
:101248000d003700d08220009040780030c4b300f1
:1012580080cf500005003200d082200090407800f6
:1012680030c6b30080cf500002003a0030c1b3004e
:10127800010037000040eb000080fa000000060083
:101288000000fa00a0832000c1c0b3000148780024
:10129800c083200031c0b30001487800d08320000b
:1012a80081c0b30001487800e0832000d1c0b300ba
:1012b800014878001200200003002000e080200090
:1012c800300207008040880091408800d0408000ac
:1012d800e20f500032003200e20f500005003e00dd
:1012e8000000e00008003200e10f50001900320051
:1012f800be003700e30f500069003200e40f5000d1
:10130800aa003200b900370018c8bf000004e00086
:1013180005003200c081200061c0b3000148780098
:10132800c08120009e01070080408000914080001d
:10133800e00f5000e08f5800ae0032000ec8bf002a
:10134800e64f5000ad003a0010002000d040880061
:10135800b30037008040800091408000e00f5000cb
:10136800e08f5800a7003200a0408000b140800004
:10137800e280200012417800c382200000804100f2
:1013880002487800a0408000b14080006100400021
:10139800e0804800a0408800b1408800a0003700e5
:1013a80060408000e10f50000b003a001428ef0065
:1013b8001628ef0046020700c081200061c0b30074
:1013c80001487800c0812000750107001000200046
:1013d800d040880092003700804080009140800013
:1013e800e00f5000e08f58001b0032000ec8bf000d
:1013f800ed4f500018003200a2408000b34080003a
:10140800d000200001002000800f5100818f59007a
:101418000e003e00a0408000b1408000e280200025
:1014280012417800c3822000008041000248780001
:10143800a0408000b140800061004000e08048008a
:10144800a0408800b1408800030037004000200019
:10145800d0408800720037008040800091408000b2
:10146800e00f5000e08f5800680032000ec8bf003f
:10147800ed4f500067003a00a0408000b140800066
:10148800e280200012417800c382200000804100e1
:101498000248780030002000d04088006000370003
:1014a800e3fd0700b183200080487800b083200066
:1014b800104078000080fb00cf80de003201200061
:1014c80003002000820f5000838f580053003e0015
:1014d80000600100260037001300370013003700b2
:1014e80013003700130037001300370013003700cc
:1014f80013003700130037001300370018003700b7
:1015080016003700070037001000370010003700ba
:1015180010003700100037001200370012003700a3
:1015280012003700200037001f0037001e00370068
:101538001d0037001c0037001b0037001a00370059
:101548001900370018003700170037001600370059
:101558001500370014003700130037001200370059
:1015680011003700100037000f0037000e00370059
:10157800c0812000f1c3b30001487800d081200069
:10158800e1c3b30001487800e0812000d1c0b30076
:10159800014878003200200003002000c0812000ac
:1015a8009e010700000000001d003700c0812000d8
:1015b800f1c3b30001487800d0812000e1c3b30033
:1015c80001487800e0812000d1c0b30001487800cc
:1015d8003200200003002000c08120008f01070096
:1015e80010002000d04088000d0037001a28ef00b6
:1015f8000b00370000000000090037000000000061
:101608000700370000000000050037000000000058
:101618000300370000000000010037000000000050
:101628000080fa00000006000000fa0001118000a6
:10163800f0cf2f0000806000001188002062a90010
:101648002002a9000111800090ff2f000080600097
:101658000011880023a2a90023e2a900111180002b
:10166800f0f32f00008060000070a00010118800c7
:10167800301020004011880021e2a80000962000c8
:1016880001002000ac0307002342a80000772100d6
:1016980001002000a803070081118000f0cf2f006f
:1016a80000806000801188003062a9003002a90023
:1016b8008111800090ff2f00008060008011880059
:1016c80033a2a90033e2a90091118000f0f32f00a2
:1016d800008060000070a000901188004011800018
:1016e800c011880031e2a800009620000100200007
:1016f800910307003342a800007721000100200071
:101708008d0307000080fa00000006000000fa00c0
:10171800d00020000100200083010700004088005d
:10172800d0002000010020007f0107001040880041
:10173800d0002000010020007b0107002040880025
:10174800d000200001002000770107003040880009
:101758000080fa00000006000000fa0021e2a8005c
:101768000096200001002000730307002342a80010
:1017780000772100010020006f0307000080fa00b5
:10178800000006000000fa002342a90000f421002e
:10179800010020006803070021e2a9000080fa0088
:1017a800000006000000fa0011118000002020004f
:1017b800008060000000e0000200320010002000fd
:1017c800010037000000eb000080fa00000006006e
:1017d8000000fa0011118000001020000080600055
:1017e8000000e00002003a0010002000010037006d
:1017f8000000eb000080fa00000006000000fa007c
:1018080010118000610060000000e000020032005a
:1018180010002000010037000000eb000080fa00f3
:10182800000006000000fa0010118000700060003f
:101838000000e00002003200100020000100370024
:101848000000eb000080fa00000006000200fa0029
:10185800000f780030118000804078001e0078006a
:10186800014878000080fa00000006000200fa0033
:10187800000f78001e007800104078000080fb0000
:10188800201188000080fa00000006000000fa001d
:1018980031e2a8000096200001002000260307007e
:1018a8003342a8000077210001002000220307002e
:1018b8000080fa00000006000000fa003342a90088
:1018c80000f42100010020001b03070031e2a900f9
:1018d8000080fa00000006000000fa009111800064
:1018e80000202000008060000000e00002003200bc
:1018f80010002000010037000000eb000080fa0013
:10190800000006000000fa0091118000001020007d
:10191800008060000000e00002003a001000200093
:10192800010037000000eb000080fa00000006000c
:101938000000fa0090118000610060000000e000e3
:101948000200320010002000010037000000eb0008
:101958000080fa00000006000000fa0090118000e4
:10196800700060000000e00002003200100020005b
:10197800010037000000eb000080fa0000000600bc
:101988000200fa00000f7800b01180008040780053
:101998001e007800014878000080fa000000060068
:1019a8000200fa00000f78001e007800104078004e
:1019b8000080fb00a01188000080fa0000000600eb
:1019c8000000fa0001118000f0cf2f0000806000b5
:1019d8000011880021e2a8002062a9002002a900c5
:1019e8000111800090ff2f00008060000011880026
:1019f800301020004011880020c2a800811180000a
:101a0800f0cf2f00008060008011880031e2a8002c
:101a18003062a9003002a9008111800090ff2f00d8
:101a2800008060008011880040118000c01188008b
:101a380030c2a8000080fa00000006000c00fa007e
:101a48003007980042079800530798006000b800d4
:101a5800008fbe0083c0a800000024009002880008
:101a68000e00370010408000e4004700190107000d
:101a78001e007800be00900000804000ce4090001c
:101a88000148780012002000030020001e0f4100ca
:101a98005e974900000024009002880010408000f2
:101aa800540107000000e00006003a004e009000d4
:101ab800de0090001e01be00800f5100818f59008a
:101ac800e8ff35005220ef001e00be000080fa003b
:101ad800000006000a00fa00200798003207980064
:101ae800430798006000b800008fbe0083c0a800bc
:101af8000000240090028800004080003d0107009b
:101b08000000e0001000320023a2a90023e2a9008f
:101b18000e0037001e007800ae00900000804000e4
:101b280090407800004080009d00070012002000cf
:101b3800030020001e0f41005e97490000002400aa
:101b4800900288000100370000000000004080007b
:101b5800150107000000e00006003a003e00900072
:101b6800ce0090001e01be00800f5100818f5900e9
:101b7800e8ff35005220ef001e00be000080fa008a
:101b8800000006000c00fa00300798004207980091
:101b9800530798006000b800008fbe0083c0a800fb
:101ba80000002400900288000e00370030408000ba
:101bb800e4004700c70007001e007800be00900040
:101bc80000804000ce4090000148780012002000bc
:101bd800030020001e0f41005e974900000024000a
:101be8009002880030408000020107000000e000f9
:101bf80006003a004e009000de0090001e01be0074
:101c0800800f5100818f5900e8ff35005220ef0006
:101c18001e00be000080fa00000006000a00fa005c
:101c28002007980032079800430798006000b80022
:101c3800008fbe0083c0a800000024009002880026
:101c480020408000eb0007000000e0001100320097
:101c580033a2a90033e2a90097e0a8000e003700dc
:101c68001e007800ae009000008040009040780090
:101c7800204080004a0007001200200003002000d6
:101c88001e0f41005e974900000024009002880062
:101c9800010037000000000020408000c20007005b
:101ca8000000e00006003a003e009000ce009000e0
:101cb8001e01be00800f5100818f5900e8ff3500da
:101cc8005220ef001e00be000080fa00000006004f
:101cd8000200fa0003003700304080008e007800d0
:101ce8007c00070030408000c20007000000e000d0
:101cf800f9ff32000080fa00000006000200fa0036
:101d080003003700104080008e0078007100070043
:101d180010408000b70007000000e000f9ff320023
:101d28000080fa00000006000600fa00100798007c
:101d3800210798002001200057fb0700000f7800ba
:101d48001e00900054fb0700800078001e007800f9
:101d5800010898001e0178006000b8000089be00e4
:101d68001e0178006000b800200198003101980039
:101d78001e0178006000b8004001980051019800e9
:101d88001e0078001e019000ae01900062009800cd
:101d9800730098001e0078000080fa00000006001a
:101da8000800fa002007980061479800ae009000ec
:101db8001107980010002000000f78001e00900006
:101dc800000990001e009000b000900020009000d4
:101dd8000000780000004100ee40900001487800c3
:101de8001e009000b00090002000900061004000ac
:101df800e08048001e019000200198003101980001
:101e08001e00900020019000b00190001e0090007c
:101e1800f000900060009000800f5100818f590001
:101e2800040035001e0190006000b80020019800f1
:101e3800310198001e00900040019000d0019000f0
:101e48001e009000f000900060009000800f51008c
:101e5800818f590009003d001e009000d0009000bd
:101e68004000900061004000e08048001e019000a2
:101e78004001980051019800130037001e0090009f
:101e88001000be0061004000e08048001e01900084
:101e98000089be001e0090001001be001e009000c8
:101ea800f000900060009000800f5100818f590071
:101eb800030035001e0190006000b8000089be00d4
:101ec8000000eb00000f78001e0078000080fa0088
:101ed800000006000800fa00200798003107980063
:101ee800ae0090001107980010002000000f780045
:101ef8001e009000d000900040009000e00f5000bd
:101f0800e08f5800230032001e0090000009900066
:101f18001e0090001000be00000078000000410084
:101f2800904078003e009000014878001e00900024
:101f38001000be0061004000e08048001e019000d3
:101f48000089be001e0090001001be001e00900017
:101f5800f000900060009000800f5100818f5900c0
:101f6800030035001e0190006000b8000089be0023
:101f78001e009000d00090004000900061005000ca
:101f8800e08058001e01900040019800510198001f
:101f9800020037000000eb00000f78001e007800f8
:101fa8000080fa00000006000400fa0010079800fc
:101fb8009e009000010f78001e00780040019000fc
:101fc800d00190001e007800f000900060009000a2
:101fd80000006900818069000080700000f0a7009f
:101fe8000000ea000000e9004f00de000080fa006f
:101ff800000006000400fa00100798009e009000f8
:10200800010f78001e007800d0009000400090007a
:102018000080700000f0a7000000ea000000e9005e
:102028004f00de000080fa00000006000000fa0001
:10203800530007002e00070014000700b00020001e
:102048000080fa00000006000000fa00cdfd07003d
:102058002135800000fe2f00008060000020a000d5
:102068002035880011368000f00f2e008080600037
:10207800003020000100700010368800b6fd07000f
:10208800c00020000080fa00000006000000fa00ee
:102098002135800000fe2f00008060002035880078
:1020a8003135800000fe2f00008060000010a00085
:1020b8003035880001368000f00f2e0080806000e7
:1020c8000030200001007000003688008136800052
:1020d800f00f2e008080600000502000010070008a
:1020e80080368800d00020000080fa00000006003a
:1020f8000000fa00c082a900c0e2a900c122a8001d
:10210800c142a900c922a800c8a2a800c8c2a80044
:10211800c8e2a800c902a800c9c2a900c9e2a9006a
:10212800d042a800d062a800d082a800d0a2a800ff
:10213800d0c2a900d0e2a900d102a900d122a900e9
:10214800c722a800ce02a800ce42a800ce82a800ce
:10215800cea2a800cec2a800cee2a800cf02a80056
:10216800cf22a800d602a800d662a800d682a8006e
:10217800d6a2a800e00020000080fa0000000600b7
:102188000000fa000080eb00601988002c03a90009
:102198002c23a8002c43a8002c63a8002c83a8009b
:1021a8002ca3a8002cc3a9002ce3a8002d03a80089
:1021b8002d23a8002d43a800f00020000080fa007d
:1021c800000006000000fa0011028000f0f12f0064
:1021d80000806000100288000080fa0000000600fd
:1021e8000000fa0011028000000e200001007000bb
:1021f800100288000080fa00000006000000fa00c3
:102208009460a8009580a8009560a80097e0a800b1
:1022180097c0a8009c20a8009c40a8002106800028
:10222800f0f82f0080806000000520000100700099
:102238002006880041058000f0ff2800008060002b
:1022480000e0a000400588005105800080ff2f00b5
:10225800008060003000b30050058800210680002f
:10226800f08f2f0080806000005020000100700077
:102278002006880091058000f08f2f000080600004
:1022880000a0a0009005880091058000f0ff2800bc
:102298008080600000002300010070009005880025
:1022a80021058000f0ff28000080600000d0a00019
:1022b800200588000080fa00000006000000fa00ef
:1022c8009580a9009c20a9009560a9000080fa00cb
:1022d800000006000000fa0097e0a9009c40a90051
:1022e80097c0a9000080fa00000006000000fa006c
:1022f80095a0a9000080fa00000006000000fa007e
:102308009460a9000080fa00000006000200fa00ac
:10231800313a800000e02f0000806000e001b30047
:10232800303a8800213a800000fe2f0000806000cb
:10233800203a8800213a8000f0f32f0000806000e6
:10234800203a880030002000000f78001e01780035
:1023580080072000a10920003374200080497800fc
:102368008149780082497800103a8000000178009d
:102378000200a000600420007105200023742000e2
:10238800804978008149780082497800000000007f
:10239800103a8000610060000000e000fcff3a0095
:1023a80000000000113a80000000270080806000d3
:1023b80000002300808f5000faff3a00a0002000a0
:1023c8000080fa00000006000000fa0011198000e1
:1023d800f0ff21000080600000d0a00010198800e4
:1023e80000c2b30024e3b70025e3a9001119800057
:1023f800f0cf2f000080600010198800411980007c
:1024080000fe2f00008060006000b30040198800c3
:1024180028e3a90001198000000e200001007000c7
:102428000019880021198000f00f2e00008060003c
:102438000080a000201988002143a900011980000c
:10244800f0cf2f0000806000001988002043a8000a
:1024580021e3a8000080fa00000006000000fa004e
:102468000000000000198000610060000000e0002a
:10247800fcff3200001880000080fa00000006000f
:102488000000fa00f1e3a800f1a3a900f183a80075
:10249800f103a900811f800000f82f0080806000f0
:1024a8001004200001007000801f8800f3e3a900d9
:1024b800f2e3a800f2a3a800f343a900f243a8009e
:1024c800f223a8000080fa00000006000200fa00cb
:1024d800000f78001e00780010007800b01f8800f8
:0824e8000080fa00000006006c
:020000040000fa
:1024f000000800000e000000000000001c080000a2
:1025000024000000000000000e0800000e00000083
:10251000000000004408000002000000020000006b
:10252000040000004008000004000000000000005b
:10253000460800000200000000000000000000004b
:020000040000fa
:10254000f03fb1000180b10006003500ee03090044
:1025500000000000403fb1000180b100fbff3d00e2
:102560001000b000203fb0000200350000800900dc
:0825700000000000000006005d
:020000040000fa
:102578000000fa0065fc070064ff0700abfe0700d7
:1025880029fc070090ff07001cff070010c0b300dc
:0825980018e8b700ffff37004f
:020000040000fa
:0200000401f009
:04000c0000000000f0
:020000040000fa
:0200000401f009
:04001000610000008b
:020000040000fa
:0200000401f009
:04001800f6000000ee
:00000001FF
