:020000040000fa
:080000000002040000000000f2
:020000040000fa
:04000800de04000012
:020000040000fa
:04000c00de0400000e
:020000040000fa
:04001000de0400000a
:020000040000fa
:04001400de04000006
:020000040000fa
:04001800de04000002
:020000040000fa
:04001c00de040000fe
:020000040000fa
:04002000de040000fa
:020000040000fa
:04002400de040000f6
:020000040000fa
:04002800de040000f2
:020000040000fa
:04002c00de040000ee
:020000040000fa
:04003000de040000ea
:020000040000fa
:04003400de040000e6
:020000040000fa
:04003800de040000e2
:020000040000fa
:04003c00de040000de
:020000040000fa
:04004000de040000da
:020000040000fa
:04004400de040000d6
:020000040000fa
:04004800de040000d2
:020000040000fa
:04004c00de040000ce
:020000040000fa
:04005000de040000ca
:020000040000fa
:040054005e03000047
:020000040000fa
:040058000c03000095
:020000040000fa
:04005c00de040000be
:020000040000fa
:04006000de040000ba
:020000040000fa
:04006400de040000b6
:020000040000fa
:04006800de040000b2
:020000040000fa
:04006c00de040000ae
:020000040000fa
:04007000de040000aa
:020000040000fa
:04007400c8020000be
:020000040000fa
:04007800de040000a2
:020000040000fa
:04007c00de0400009e
:020000040000fa
:04008000de0400009a
:020000040000fa
:04008400de04000096
:020000040000fa
:04008800de04000092
:020000040000fa
:04008c00de0400008e
:020000040000fa
:04009000de0400008a
:020000040000fa
:04009400de04000086
:020000040000fa
:04009800de04000082
:020000040000fa
:04009c00de0400007e
:020000040000fa
:0400a0004404000014
:020000040000fa
:0400a400f80300005d
:020000040000fa
:0400a800de04000072
:020000040000fa
:0400ac00de0400006e
:020000040000fa
:0400b000de0400006a
:020000040000fa
:0400b400de04000066
:020000040000fa
:0400b800de04000062
:020000040000fa
:0400bc00de0400005e
:020000040000fa
:0400c000de0400005a
:020000040000fa
:0400c400de04000056
:020000040000fa
:0400c800de04000052
:020000040000fa
:0400cc00de0400004e
:020000040000fa
:0400d000de0400004a
:020000040000fa
:0400d400de04000046
:020000040000fa
:0400d800de04000042
:020000040000fa
:0400dc00de0400003e
:020000040000fa
:0400e000de0400003a
:020000040000fa
:0400e400de04000036
:020000040000fa
:0400e800de04000032
:020000040000fa
:0400ec00de0400002e
:020000040000fa
:0400f000de0400002a
:020000040000fa
:0400f400de04000026
:020000040000fa
:0400f800de04000022
:020000040000fa
:0400fc00de0400001e
:020000040000fa
:04010000de04000019
:020000040000fa
:04010400de04000015
:020000040000fa
:04010800de04000011
:020000040000fa
:04010c00de0400000d
:020000040000fa
:04011000de04000009
:020000040000fa
:04011400de04000005
:020000040000fa
:04011800de04000001
:020000040000fa
:04011c00de040000fd
:020000040000fa
:04012000de040000f9
:020000040000fa
:04012400de040000f5
:020000040000fa
:04012800de040000f1
:020000040000fa
:04012c008c03000040
:020000040000fa
:040130007204000055
:020000040000fa
:04013400de040000e5
:020000040000fa
:04013800de040000e1
:020000040000fa
:04013c00de040000dd
:020000040000fa
:04014000de040000d9
:020000040000fa
:04014400de040000d5
:020000040000fa
:04014800de040000d1
:020000040000fa
:04014c00de040000cd
:020000040000fa
:04015000de040000c9
:020000040000fa
:04015400de040000c5
:020000040000fa
:04015800de040000c1
:020000040000fa
:04015c00de040000bd
:020000040000fa
:04016000de040000b9
:020000040000fa
:04016400de040000b5
:020000040000fa
:04020800de04000010
:020000040000fa
:04020c00de0400000c
:020000040000fa
:04021000de04000008
:020000040000fa
:04021400de04000004
:020000040000fa
:04021800de04000000
:020000040000fa
:04021c00de040000fc
:020000040000fa
:04022000de040000f8
:020000040000fa
:04022400de040000f4
:020000040000fa
:04022800de040000f0
:020000040000fa
:04022c00de040000ec
:020000040000fa
:04023000de040000e8
:020000040000fa
:04023400de040000e4
:020000040000fa
:04023800de040000e0
:020000040000fa
:04023c00de040000dc
:020000040000fa
:04024000de040000d8
:020000040000fa
:04024400de040000d4
:020000040000fa
:04024800de040000d0
:020000040000fa
:04024c00de040000cc
:020000040000fa
:04025000de040000c8
:020000040000fa
:040254005e03000045
:020000040000fa
:040258000c03000093
:020000040000fa
:04025c00de040000bc
:020000040000fa
:04026000de040000b8
:020000040000fa
:04026400de040000b4
:020000040000fa
:04026800de040000b0
:020000040000fa
:04026c00de040000ac
:020000040000fa
:04027000de040000a8
:020000040000fa
:04027400c8020000bc
:020000040000fa
:04027800de040000a0
:020000040000fa
:04027c00de0400009c
:020000040000fa
:04028000de04000098
:020000040000fa
:04028400de04000094
:020000040000fa
:04028800de04000090
:020000040000fa
:04028c00de0400008c
:020000040000fa
:04029000de04000088
:020000040000fa
:04029400de04000084
:020000040000fa
:04029800de04000080
:020000040000fa
:04029c00de0400007c
:020000040000fa
:0402a0004404000012
:020000040000fa
:0402a400f80300005b
:020000040000fa
:0402a800de04000070
:020000040000fa
:0402ac00de0400006c
:020000040000fa
:0402b000de04000068
:020000040000fa
:0402b400de04000064
:020000040000fa
:0402b800de04000060
:020000040000fa
:0402bc00de0400005c
:020000040000fa
:0402c000de04000058
:020000040000fa
:0402c400de04000054
:020000040000fa
:0402c800de04000050
:020000040000fa
:0402cc00de0400004c
:020000040000fa
:0402d000de04000048
:020000040000fa
:0402d400de04000044
:020000040000fa
:0402d800de04000040
:020000040000fa
:0402dc00de0400003c
:020000040000fa
:0402e000de04000038
:020000040000fa
:0402e400de04000034
:020000040000fa
:0402e800de04000030
:020000040000fa
:0402ec00de0400002c
:020000040000fa
:0402f000de04000028
:020000040000fa
:0402f400de04000024
:020000040000fa
:0402f800de04000020
:020000040000fa
:0402fc00de0400001c
:020000040000fa
:04030000de04000017
:020000040000fa
:04030400de04000013
:020000040000fa
:04030800de0400000f
:020000040000fa
:04030c00de0400000b
:020000040000fa
:04031000de04000007
:020000040000fa
:04031400de04000003
:020000040000fa
:04031800de040000ff
:020000040000fa
:04031c00de040000fb
:020000040000fa
:04032000de040000f7
:020000040000fa
:04032400de040000f3
:020000040000fa
:04032800de040000ef
:020000040000fa
:04032c008c0300003e
:020000040000fa
:040330007204000053
:020000040000fa
:04033400de040000e3
:020000040000fa
:04033800de040000df
:020000040000fa
:04033c00de040000db
:020000040000fa
:04034000de040000d7
:020000040000fa
:04034400de040000d3
:020000040000fa
:04034800de040000cf
:020000040000fa
:04034c00de040000cb
:020000040000fa
:04035000de040000c7
:020000040000fa
:04035400de040000c3
:020000040000fa
:04035800de040000bf
:020000040000fa
:04035c00de040000bb
:020000040000fa
:04036000de040000b7
:020000040000fa
:04036400de040000b3
:020000040000fa
:100400002f9120000e7f24000e01880000000000c4
:10041000000020000000e000020032000001200087
:100420002002880014000700870107000000e00098
:1004300003003a0040f821000100200002003700cc
:100440000000200001002000810f70000100320038
:1004500014000700000020000000e000020032004d
:1004600000000200000000002e2102000000000039
:100470000040da000000fe004440a90040002000d7
:100480000000e0000300320000002000a00188000e
:100490004440a800000006008a1f78008b1f7800e7
:1004a0000000060091018800800478000000eb0045
:1004b0001a003700e284440032a0b4009905ba0063
:1004c000e284440032a0b4009906ba00e2844400f9
:1004d00032a0b4000006eb00476fde00fd07b2005b
:1004e000636ce10003003a00ebff07000000eb0043
:1004f0000a003700606ce10004003a00005deb0088
:100500008b05e900fdff3e00040037006168e10053
:10051000010032000086eb000b00070019c7ba008b
:100520001905ba000e04e00003003a000a00e000da
:10053000e0ff3a0000000600fe07b2009e018800be
:100540008a047800f5ff3700395dba008b05e900b1
:100550000c003200295dba008b05e900080032006a
:100560000c00e00003003a00e284440032a0b40032
:10057000f5ff370019ddba008b05e900faff3a00f4
:100580008904e800e184440032a0b40000000600c1
:10059000809fbe000000fa00511680000004200079
:1005a000008060000000e00009003200f04480009c
:1005b0000000e00006003a0010002000f04488002f
:1005c000904580000000e800904588000500370055
:1005d000f0448000e10f500002003a000000eb0000
:1005e000f04488005116800051168000901680005b
:1005f0009016800091168000501680001016800022
:1006000050168000901680008660a9000080fa00d5
:100610004f00be00004006003600f800809fbe007c
:10062000829fbe00849fbe00869fbe000200fa002b
:1006300000408000570d07000000e00002003a0073
:1006400023a2a90023e2a8003e0b07000000e0005f
:1006500010003a00004080004e0d07000000e0004e
:100660000c003a00020037000e007800670b07000c
:10067000340b07000000e00008003a000040800052
:100680008e007800fb0c07000000e000f6ff3a0047
:10069000030037008580a90001003700000000003a
:1006a0000080fa004f03be004f02be004f01be00a3
:1006b0004f00be003600f900004006003600f8008a
:1006c000809fbe00829fbe00849fbe00869fbe00aa
:1006d0000200fa00050037000e007800430b070007
:1006e0009e40780010408000950c07002b0b0700ff
:1006f0000000e000f8ff32008560a9000080fa00e9
:100700004f03be004f02be004f01be004f00be00af
:100710003600f900004006003600f800809fbe0059
:10072000829fbe00849fbe00869fbe000200fa002a
:10073000100020005040880050c1b30008e8b70006
:10074000120020000300200080802000c90b070059
:1007500010118000620060000000e000050032001f
:1007600010118000640060000000e00001003a0009
:100770002222a90010118000640060000000e00047
:100780001300320010118000620060000000e000e1
:100790000f003a0001003700000000001011800037
:1007a000640060000000e00002003a000e007800e3
:1007b0000e0b070010118000640060000000e000d4
:1007c000f5ff32000e007800080b07000000000063
:1007d0008c20a9000080fa004f03be004f02be002b
:1007e0004f01be004f00be003600f9000040060079
:1007f0003600f800809fbe00829fbe00849fbe002e
:10080000869fbe000200fa0020408000e10c070035
:100810000000e00002003a0033a2a90033e2a80081
:10082000150b07000000e0000f003a002040800098
:10083000d80c07000000e0000b003a00020037006f
:100840000e0078003e0b07000b0b07000000e000d5
:1008500005003a00204080008e007800850c0700db
:100860000000e000f6ff3a0087e0a9000080fa00ef
:100870004f03be004f02be004f01be004f00be003e
:100880003600f900004006003600f800809fbe00e8
:10089000829fbe00849fbe00869fbe000200fa00b9
:1008a000050037000e0078001d0b07009e40780001
:1008b00030408000220c0700050b07000000e0001c
:1008c000f8ff320087c0a9000080fa004f03be0085
:1008d0004f02be004f01be004f00be003600f900bf
:1008e000004006003600f800809fbe00829fbe00d8
:1008f000849fbe00869fbe000200fa001000200008
:100900006040880050c1b30008e8b7001200200022
:100910000300200080802000a80b070090118000b9
:10092000620060000000e0000500320090118000cd
:10093000640060000000e00001003a003222a900db
:1009400090118000640060000000e000130032009d
:1009500090118000620060000000e0000f003a008b
:10096000010037000000000090118000640060006a
:100970000000e00002003a000e007800e80a0700dc
:1009800090118000640060000000e000f5ff32007c
:100990000e007800e20a0700000000008c40a90069
:1009a0000080fa004f03be004f02be004f01be00a0
:1009b0004f00be003600f900004006000040da009b
:1009c0000000fe00889fbe00800478008048800000
:1009d0000000e00004003a000e0007000084eb0075
:1009e0000000e00008003500884880000900e000b1
:1009f0000500320009004400060007000000e00086
:100a000001003d000084eb00080078004f04be00a8
:100a100000000600800078000100e00003003a00ba
:100a20000000200080488800000005000080eb00e6
:100a300002002000828f500002003e0081488800a2
:100a40000000eb0000000600000005006900e10066
:100a5000040035006d00e100030034000002b10025
:100a6000010032000000050010000500889fbe0054
:100a700000047800114880000100e000020032000c
:100a8000010078000d0037002148800040902000d0
:100a900004003700910f5400250036000180e80063
:100aa000910090000100e000faff3a0010003700ca
:100ab000920f54001e0036000280e80010017800fa
:100ac0000200e000faff3a0011017800214880009e
:100ad0004090200004003700910f540014003600ad
:100ae0000180e80091009000828f5000faff3a00e8
:100af00079488000888f5400010031008804780014
:100b000009007800560007000000e00004003a00e9
:100b1000888f5400050032008904d100f5ff3700aa
:100b2000091878003c040700d2ff37000000eb00f2
:100b30004f04be0000000600881f780063044000d8
:100b40000800a1008000eb00800f54002100360057
:100b5000e30f540001003e00480020000800780028
:100b6000c2ff07008000eb000000e0001900320027
:100b7000900078009101780064815100880f510045
:100b800003003100110190000208780007003700cf
:100b9000088140000208780091019000130198003c
:100ba00010017800110914008808780010017800fd
:100bb0000000eb000200e00004003200920190000f
:100bc0000300e000010032000280e80010488800c5
:100bd0008180e800010078004f04780000000600e2
:100be00000017800b1417800035978000304e00067
:100bf000fcff3a0000000600889fbe0081047800d8
:100c00000000e00002003a00484880000100370080
:100c1000000478000800be004c04070000044400f3
:100c20001804e00004003a0060902000404888006a
:100c30000004eb00070037000800be003204070084
:100c4000000044001004e000010032000058eb00f6
:100c500040488800080078004f04be0000000600ed
:100c6000800078000000eb000100e0000500340087
:100c70000100780053ff0700e10f400001003a0037
:100c80000000eb00000006000e00fa00889fbe0086
:100c90008a9fbe008c1f7800a0bf9f0001047800cf
:100ca0000205be0080047800880078006c80570040
:100cb0003201070068066000000278000430a100dd
:100cc000e10f520013003a00f48157000801780048
:100cd000afb8970009007800400007000000e0006e
:100ce00002003a006000b800030037000fb8970018
:100cf0009fb8970092040700c0b79f00d1b79f002c
:100d00006fb19700ffb197000a0141008b81490044
:100d100016003700e20f520018003a0014002000bd
:100d2000f481570008017800afb8970009007800f7
:100d3000a30107000000e00002003a006000b800d4
:100d4000030037000fb897009fb897007c04070096
:100d5000c0b79f00d1b79f006fb19700ffb1970058
:100d6000788057001d0307000a01be004fb09700ae
:100d7000dfb09700ac0207000c0037000000200035
:100d800001f82700e30f5200050032006000b800b0
:100d9000e40f520005003a00f0ff2f00f1ff27009a
:100da000c0b79f00d1b79f0002003700c0b79f00b7
:100db000d1b79f004fb09700dfb097000c00e00064
:100dc0000100320001f0a2004f0678004f05be007e
:100dd0004f04be000080fa0000000600ea874700ca
:100de000889fbe008a9fbe008c9fbe008e1f780029
:100df000d0b79f00e2b79f00030478006722b900d4
:100e0000840678000006eb00010037001c0020007b
:100e1000810578008b00780000c3b300b14f10004b
:100e2000faff3200000ceb00381478000805780057
:100e30008004eb00290037008d8f540017003d001f
:100e400072002000110009008204d8000100e000b7
:100e500003003a0064054500001deb000015eb009f
:100e60001b02fb00cfa2de000403b1000580b1002d
:100e7000a2002000030020001a00be00f4b79f006b
:100e800085bf9f00a30407007fb297008fba970029
:100e9000001d420001954a000d003700100020009f
:100ea00001002000180c4000589448008d8f540019
:100eb00008003a0040c3b3009b4f10000500340007
:100ec00012002000030020001a0d41005a9549002d
:100ed0008904e8008b05e8001c0020001b40780016
:100ee0008000fb000103b100e98f5000d2ff360003
:100ef0008d8f5400010034008d047800e1c2b300ee
:100f0000814f500001003a008b05e8000900e00025
:100f10002b003a000b007800050037000081eb0041
:100f20008081eb00180c4100589449001c002000ff
:100f30008005780001c3b300b0cf1000f7ff320086
:100f40001f0037008d8f54001c003d0072002000f0
:100f5000110009008204d8000100e00003003a00fb
:100f600064054500001deb000015eb007bfa9700bf
:100f70000402fb00cfa2de000403b1000580b10033
:100f8000a2002000030020001a00be00f4b79f005a
:100f900085bf9f005f0407007fb297008fba97005c
:100fa000001d420001954a008904e8000080eb0022
:100fb0008080eb00180c4000589448001c00200072
:100fc0000b0778008e0578003b00fb000003b100a2
:100fd000e90f5000dbff36008c0578007d00200013
:100fe000110009008d04d8000100e0001600320055
:100ff000818656001a01be00e00f5100e08f5900b3
:10100000070032000d00e9004200dd00618c200085
:10101000008040001000be003e040700008dbe00ae
:10102000898446006168b900181c100018941800e3
:1010300005003700e7845400720020000300200000
:10104000180c410058944900e68f54000400340005
:101050002a00be00e00f5000e08f5800f5ff32007c
:101060000c00e000340032001e40780051c6b3008e
:10107000814f50000300320051c4b300814f500033
:101080002c003a005e457800b0c2b300804f550096
:1010900003003200d1c2b300814f550002003a0074
:1010a0000e07e80001003700004578000e067800c2
:1010b0006000b8008005eb000f003700f20f2e0033
:1010c000535f2000820f5000838f580009003c00be
:1010d000a2002000030020000e0407000d01fb0009
:1010e000cf91de000203b1000380b1000200400096
:1010f000838048001b0020000c0778000e06780053
:10110000bc4678000d01fb000203b100e90f51005d
:10111000eaff3600d2c2b300824f550002003a0007
:1011200060001000e0801800180c4000589448003f
:10113000010037008c057800efb197000300e00054
:10114000050032000b00e00001003a005fb7970095
:101150006fb097000e08780072002000110009009f
:101160008204d8004f0778004f06be004f05be002e
:101170004f04be00af00b10000000600889fbe0013
:101180008a9fbe008c9fbe00000478000106780094
:1011900098047800890578000b0578008a057800a6
:1011a000bb4678000d00fb0028fe07000000e000b1
:1011b000f9ff3a00d0c2b30080cf560003003a00d6
:1011c0000b05780081002000050037008000eb004f
:1011d000b0c2b30080cf560001003a000b05780082
:1011e0001a407800e2c6b300824f5000030032007c
:1011f000e2c4b300824f500027003a008a00780012
:101200005141780010c6b300804f510004003200f5
:101210000000eb0013c4b300834f51005c003a00a0
:1012200051417800e0c6b300804f51000400320005
:101230000000eb00e3c4b300834f510054003a00b8
:101240008104780080c2b300d94f10000b003a002f
:10125000640545008a057800ba4678000d00fb0059
:101260004f0107000000e000faff3a00f0c5b300ac
:1012700080cf5600f7ff3200010037008905780063
:101280004000200091c2b3009bcf100040003a0004
:101290008b04e8003e00370092c6b300824f500036
:1012a0000300320092c4b300824f50003c003a0069
:1012b0005a417800e0c6b300804f5100040032006c
:1012c0000000eb00e3c4b300834f510030003a004c
:1012d0005a41780060c6b300804f510004003200cc
:1012e0000000eb0063c4b300834f510028003a00b4
:1012f0008a047800010078003000b300d9407800fb
:1013000092c6b30082cf50000300320092c4b300f3
:1013100082cf50001e003a008900780051417800c9
:10132000e3c6b300834f510003003200e3c4b300af
:10133000834f510016003a005141780093c6b30024
:10134000834f51000300320093c4b300834f510018
:101350000f003a005141780043c7b300834f51005a
:101360000300320043c5b300834f510008003a0028
:101370005141780093c7b300834f510003003200fe
:1013800093c5b300834f510001003a008104e80087
:101390000c00e00005003200090e78000300370061
:1013a000010078000000a0008a047800090c780091
:1013b0004f06be004f05be004f04be0000000600f1
:1013c000e8874700889fbe008a9fbe008c9fbe00b2
:1013d0008e1f7800e0b79f00820478000304780035
:1013e0006722b9000006eb00010037001c00200056
:1013f0008101780000c3b300b14f1000fbff320041
:10140000000ceb0038147800880578000005eb002c
:101410002a003700840f550016003d00720020009e
:10142000110009000205d8000100e00003003a00a5
:10143000e4854500801deb008015eb001b06be0017
:10144000446bdd00cc63de00870373004463dd0082
:1014500061882000018052000187200061407800ef
:101460000000fb00cf80de00801d430081954b0013
:10147000100037001000200001002000180c400070
:1014800058944800840f55000b003a0061882000f2
:10149000018052000187200061407800e74f500032
:1014a0000500340010002000010020009b0d4000ca
:1014b000db9548000a05e8001c0020008306780040
:1014c0008d017800334778008e00fb006201200018
:1014d00060882000f3b79f0084bf9f0000020700d0
:1014e00080027800ffb197000fba97000500e00076
:1014f000c8ff3a00840f550001003400040578004d
:10150000e0c2b300804f570001003a008d06e800aa
:101510000a00e00029003a000d00780005003700bd
:101520000081eb008081eb00180c410058944900c9
:101530001c0020008006780001c3b300b0cf10006b
:10154000f7ff32001d003700840f55001a003d00e0
:1015500072002000110009000205d8000100e0001f
:1015600003003a00e4854500801deb008015eb0088
:101570001b03be004439dd00cc31de008301710065
:101580004431dd0061882000018052000187200085
:10159000614078000000fb00cf80de00801d41002c
:1015a000819549000a05e8000081eb008081eb008d
:1015b000180c4100589449001c0020000d077800c9
:1015c0008e067800bd00fb006201200060882000cc
:1015d00084bf9f00c2010700800278000fba970005
:1015e0000500e000d8ff3a000c01780073002000ed
:1015f000110009000305d8000100e00013003200cb
:1016000001805100c200dd001b02be008100e90024
:10161000030033000402420085824a00fbff3700ca
:10162000848dbe000a054000cf80de00181c10002b
:101630001894180005003700670555007000200059
:1016400001002000180c400058944800e60f550097
:10165000040034002b00be00e00f5000e08f580063
:10166000f5ff32001800be00420add00ce02de00a7
:10167000850272004202dd00048cbe000c00e00016
:10168000380032001e40780001c7b300814f50007f
:101690000300320001c5b300814f500030003a0012
:1016a0000e067800dc457800b0c2b30080cf55004c
:1016b00003003200d1c2b30081cf550002003a00ce
:1016c0000c06e80001003700804578006000b80093
:1016d0000001eb0013003700f20f2e00535f2000d3
:1016e000820f5000838f58000d003c00a2002000a4
:1016f0000300200084bf9f00f5b79f00850207000c
:101700000d01fb00cf91de000203b1000380b100a8
:101710000200400083804800ffb297000fba970094
:10172000120020000c0778000e067800bc467800f6
:101730008d01fb000303b100e98f5100e6ff360085
:10174000d3c2b30083cf550002003a0060001000fe
:10175000e0801800041c4000059448000100370098
:101760000c0178000900e000040032000200e000f3
:1017700001003a006fb797008e0c780072002000cd
:10178000110009000205d8004f0778004f06be007f
:101790004f05be004f04be008f00b10000000600e0
:1017a0000003b1000b0035009000b10008003400c8
:1017b0008000b100070035009001b1000400340042
:1017c0007000b100030035009001b10001003c0041
:1017d00010000500000005000600fa00881f7800d0
:1017e000000478008800780068805700d2bf9f000e
:1017f000e3bf9f00d40007005fb99700efb99700df
:101800001800be000f020700008cbe004fb9970001
:10181000cf91de0008007800700007004f047800c8
:101820000080fa00000006000400fa00889fbe0055
:101830008a1f7800b0bf9f00c1bf9f000204be0096
:10184000e00f5100e08f59005e0032006011b800d7
:10185000b90107000000e0005a003200e00f540018
:10186000e08f5c002a003d0060041400e0841c004e
:101870000005eb000000200001f823000808a30089
:1018800005003200c251dd00628e2000028141005d
:101890001201be00eb0107008904d1000884d300c7
:1018a000e00f5400e08f5c00030032000a05e800fe
:1018b000e50f5500f1ff3a000001be0000002000d6
:1018c00001f823005a0107000001be006a8057009a
:1018d000c1ff07000000e00032003d00e00f5400af
:1018e000e08f5c0037003200e2112b00f3a42000ef
:1018f0006a805700b8ff07000000e00029003d00a3
:1019000061045400e0845c00f7ff3a0029003700ce
:101910000005eb000000200001f823000808a300e8
:1019200005003200c251dd00628e200002814100bc
:101930001201be00c30107008984d1000884d300ce
:10194000e00f5400e08f5c00030032000a05e8005d
:10195000e50f5500f1ff3a000001be006a80570014
:101960009dff07000000e0000e003d00e00f540066
:10197000e08f5c0013003200e25a2c00d3492700ac
:101980006a80570094ff07000000e00005003d005a
:1019900061045400e0845c004240a900f6ff3c0072
:1019a000040037000000e00002003a0000012000bf
:1019b00003003700e10f500002003a0080002000d1
:1019c000850007003fb89700cfb897004f05780013
:1019d0004f04be000080fa00000006000400fa0078
:1019e000889fbe00000478008804780059007800c1
:1019f0004702de0084007800f10fb200e14f4200a0
:101a000009003a0080007800f107b20020002000b1
:101a10004a003a00100020001800e00047003200a1
:101a200020002000450037000100e0000a003a00d5
:101a300008007800c2bf9f00d3bf9f00d3000700fb
:101a4000800078000000eb004fb99700dfb99700e5
:101a50000100e00039003c004f88de0002814000b8
:101a600083014800e00f2000800f5100e08f5900f3
:101a7000090034000000200001f827001900e000f0
:101a800002003d000000200001f82f00008cbe0085
:101a90001000200029003700e00f5100e08f5900ae
:101aa000050034004711dd00f00728001900600030
:101ab000800c710020003700990078000000280099
:101ac00000806000f10fb2000170a000810c78006e
:101ad00061015100e0815900f70f4100e08f49009a
:101ae00004003d00800c7800000ceb000000eb00cf
:101af00012003700ef0f410003003d00010c780099
:101b0000800ceb00700141000201ea000900320084
:101b1000f0001100990178008119dd00980078002b
:101b20008208de00018c7100990078000209de0055
:101b3000820c7800990c70000080eb004f04be000e
:101b40000080fa0000000600889fbe000004be006e
:101b500000f82700590060004700de00f20f200067
:101b6000820f50000a003a00000ceb00f207200040
:101b7000190161002000200015003a00100020002b
:101b80001100e00012003200200020001000370099
:101b90000000e00004003a00010078007b0007002c
:101ba0000000e00008003c00f20728001901610075
:101bb00001f02300810c710021f82f00010c40007e
:101bc0000080eb0002003700000ceb000000eb008f
:101bd0004f04be0000000600e50060000300320074
:101be00010022000504888000000060078006000c5
:101bf0000200320020022000504888000000060049
:101c0000604880000000e000010032000000010098
:101c1000a0902000000006000000e0002f0032002d
:101c2000c0017800e38f51002c0036000308a300a8
:101c30002a003a00214880000100e0000200320042
:101c4000810f5000040031001100980020488800e6
:101c50001600370082007800110190000200e000b9
:101c600002003200800f5100faff390011027800a3
:101c700084824000850f500018003900808f520088
:101c800003003a0083084200010078000700370093
:101c90000200e0000300320083014000830f510086
:101ca0000e003900120098009000980090009000fb
:101cb0000100e0000900320010014000828f500056
:101cc00006003a00229020000009eb001001780085
:101cd00011084100910090001100980000000600da
:101ce00003003700b0cf1000050032000201e90008
:101cf000800178000200e000faff3a0000000500d1
:101d0000030078000000060000017800070037009b
:101d100086cf520002003a00008051000000060009
:101d2000344378000604e000f9ff3a0082017800ad
:101d3000b24278000504e00002003200010278009f
:101d4000f7ff370000805100000006000001780016
:101d50000800370081027800354378000604e0006f
:101d600002003a000080510000000600864f520039
:101d7000f9ff3a0082017800324278000404e00062
:101d8000f4ff3a0000805100000006008000780057
:101d9000d10178000400280004826100f307b2003a
:101da00083087800120020000e003a0090017800ad
:101db0000300e0001b003200830878000008eb00fd
:101dc00012ff2f0007003700838141009002780046
:101dd000cf2ade00858871009001780003884100d9
:101de0000201e90091017800f5072000858f51007c
:101df000f5ff360005003700cf19dd009002d10055
:101e0000058871009108d1000201e8009101780075
:101e1000f50f2000858f5100f7ff3e00f0072000ee
:101e200080886100910872000200780000000600be
:101e3000889fbe008a9fbe008c1f78006900070043
:101e40007000330003866c006450e1002e00320005
:101e50006420e100330032006150e1002f003200c5
:101e60006120e1003100320085855500eb07b000ac
:101e70000900200008042000050037000804440081
:101e800089844c000a0031000603430087834b001d
:101e90000001530081815b00f8ff33000203be00a4
:101ea0000800a0000804440089844c00f6ff3900b3
:101eb000c639dd00830173000100320013002000e9
:101ec0008904d1000884d3000998a30005003200da
:101ed0000800a7000300a0008904d1000884d300f3
:101ee0008b05e8008904d1000884d3000001eb00d1
:101ef0000281d2001500070001f0a1000cf0a7003c
:101f000001f0a000480037006420e1004a003200e0
:101f10000801be000200be00f7ff37006120e100ab
:101f2000450032006000b800f3ff370000002000d9
:101f300001f82700f0ff3700140020007b00370075
:101f40004f89de0082017800930037008100200075
:101f5000618055000b003d000b00200061fe2f004a
:101f60000100e1001d003400828171006101640004
:101f70008904d1000884d3000000e800faff3a0089
:101f80007100200061006400030070000200600026
:101f90000900320061044400e0844c000988a50077
:101fa000050032008b05e8006808e10002003a00f5
:101fb0008904d1000884d300f20f20000258e10008
:101fc00005003d00c75ddd00f907b200898075009e
:101fd00008007800000006000bf827008b0078004e
:101fe000000005000004be00aa0007000003be00b8
:101ff0000405be000200be00a6000700844f750065
:10200000000006000200be006450e100050036003a
:102010006420e100020036000968a30001003a00d4
:102020000800be000160a0004f0678004f05be000a
:102030004f04be0000000600f0ff2f00f1ff270054
:10204000f9ff3700889fbe008a9fbe008c1f780072
:10205000e4ff0700ebff330003866c006450e100ef
:10206000240032006420e100270032006150e100ca
:10207000220032006120e100210032008b85420005
:10208000eb07b1000134b800003ab8000804420080
:1020900089844a00013ab8000030b80088804000c6
:1020a00009014a000400330000004000818048001c
:1020b000020149008b05e900c909dd0083017000b8
:1020c0000100320013002000c814de004814dd00b7
:1020d0004709de001200b200c808de000884700064
:1020e0009aff070001f0a1000cf0a70001f0a0008a
:1020f000cdff37006120e100cfff32000801be00b4
:102100000200be00f7ff37006150e100fcff3a001b
:10211000c9ff3700020ab900001bb9000200b8006d
:10212000810042008100430000000600889fbe003d
:102130008a9fbe00841f7800aaff07004f00780026
:1021400011003300f0ff2f00838f6c0006003b006e
:10215000040565000a00a7000800370009f0a60082
:102160001000200008003700820f5400838f5c00ad
:10217000030039001000200001003e000000200094
:1021800009f0a7000000ea004f05be004f04be00a2
:102190000000e00000000600881f780003047800bb
:1021a0000300e00007003d0060001000e080180020
:1021b00060011900e081190002003b0001f02d00d0
:1021c000030037000400070008f0a70001f0a0009a
:1021d0004f04780000000600889fbe008a9fbe0062
:1021e0000082700004027100048271002600320037
:1021f0000004be000200be006011b8006b092000a0
:10220000950220000182cf000a0039000541b1008b
:102210000082cf00070039000541b1000982cf00dc
:10222000040039000541b1000882cf0001003900e7
:102230000541b10005425200120032000a003b0085
:1022400082817100610164008100d1000080d300af
:102250008984d3000884d3008b05e8000442e80099
:10226000f7ff3a00070037000804440089844c0057
:1022700000004800818048008b05e9000442e90025
:10228000f9ff3a0031ff07004f05be004f04be00c2
:1022900000000600c70ade00f107b200f50fb20029
:1022a00008003200e1cf4200020032000170a000bd
:1022b00024000500810f70000100320004080500b1
:1022c00044000500810f700002003a001400050070
:1022d0008502e9000000400081c04800fcff3b008f
:0822e0000170a00024000500bc
:020000040000fa
:0822e800200d000000000000c1
:020000040000fa
:1022f0000a00fa002007980031079800420798006a
:10230000030037002e0090000000e800200798002e
:102310002e009000104078000000fb000003b10088
:10232000e90f5000f7ff3e0040172900000f78002a
:102330009e0078002e0090002ffa070010079800ea
:102340009e0090003e00900025fa07009e00780055
:102350000000eb0028fa0700100798001e0090000c
:102360000000e000030032009e0090004e0090004c
:102370001bfa07000080fa00000006000800fa00bf
:102380003007980010002000100798000000eb00b4
:10239000200798003e0090000000e8009040780080
:1023a00030c4b30080cf50006d003a002000200000
:1023b000000f78005a0037001e007800be00900021
:1023c00000804000104078000000fb000003b100d6
:1023d000e90f5000020036000000eb003401370026
:1023e0002e0090000000e800200798002e009000ca
:1023f000e30f5000020034000000eb002c01370016
:102400001e0fe80001003700000000001e007800e9
:10241000be0090000080400090407800e0c2b30011
:1024200080cf5000080032001e007800be009000ef
:1024300000804000104078000000fb0083f9070096
:102440000000e000dcff32001e007800be009000bb
:102450000080400090407800e0c2b30080cf500080
:10246000080032001e007800be009000008040008e
:10247000104078000000fb0074f907000000e00045
:102480000a0032001e0fe8001e0078000000e9007c
:10249000be0090000080400090407800e0c2b30091
:1024a00080cf50000f003200170037000000eb0013
:1024b000ff0037001e007800be0090000080400042
:1024c000104078000000fb000003b100e90f50004d
:1024d000020036000000eb00f50037001e0fe80098
:1024e00001003700000000001e007800be009000d0
:1024f00000804000104078000000fb0053f9070006
:102500000000e000ebff32001e0090000000e80039
:10251000100798001e0fe8000000eb00200798004d
:102520001e007800be00900000804000104078003f
:10253000ed4f5000030032001e009000e20f5000eb
:10254000b1ff34001e009000e20f50000200340082
:102550000000eb00d600370010002000d400370048
:102560003e0090000000e8009040780050c4b300a6
:1025700080cf5000060032003e0090000000e800ce
:102580009040780010c4b30080cf500059003a004a
:1025900020002000000f7800130037001e00780094
:1025a000be00900000804000104078000000fb005a
:1025b0000003b100e90f5000020036000000eb00fc
:1025c000bb0037002e0090000000e80020079800b4
:1025d0002e009000e30f5000020034000000eb00da
:1025e000b30037001e0fe8001e007800be00900008
:1025f0000080400090407800e0c2b30080cf5000df
:10260000080032001e007800be00900000804000ec
:10261000104078000000fb000cf907000000e0000b
:10262000deff32001e007800be00900000804000f7
:1026300090407800e0c2b30080cf50000800320024
:102640001e007800be00900000804000104078001e
:102650000000fb00fdf807000000e0000a00320067
:102660001e0fe8001e0078000000e900be00900088
:102670000080400090407800e0c2b30080cf50005e
:102680000f003200170037000000eb008800370011
:102690001e007800be0090000080400010407800ce
:1026a0000000fb000003b100e90f500002003600fb
:1026b0000000eb007e0037001e0fe800010037002d
:1026c000000000001e007800be0090000080400066
:1026d000104078000000fb00dcf807000000e0007c
:1026e000ebff32000000eb002007980010002000f4
:1026f0006f0037003e0090009040780070c5b30036
:1027000080cf500044003a0010002000000f7800f5
:10271000310037001e007800be00900000804000ad
:10272000104078000000fb000003b100e90f5000ea
:10273000020036000000eb005d0037002e00900024
:102740000000e800200798001e0fe8000100370095
:10275000000000001e007800be00900000804000d5
:10276000104078000000fb00b8f807000000e0000f
:10277000e8ff32002e009000e30f5000020032000c
:102780000000eb004a0037001e007800be009000f9
:1027900000804000104078000000fb00abf807000c
:1027a0000000e0000a0032002e009000e30f50000d
:1027b00007003a001e0fe8001e0090000000e8002d
:1027c000100798000000eb00200798000200370077
:1027d0000000eb00360037001e007800be009000bd
:1027e0000080400010407800ed4f500003003200a0
:1027f0001e009000e20f5000d5ff34001e00900034
:10280000e20f5000020034000000eb002800370007
:1028100010002000260037003e0090009040780015
:10282000d0c4b30080cf500020003a001000200038
:10283000000f78000e0037001e007800be009000e8
:1028400000804000104078000000fb000003b10051
:10285000e90f5000020036000000eb0014003700c2
:102860002e0090000000e800200798001e0fe800ee
:102870001e007800be0090000080400010407800ec
:102880000000fb0071f807000000e000eaff3200e2
:102890002e009000e30f5000020032000000eb0019
:1028a0000300370010002000010037000000eb009b
:1028b0000080fa00000006000000fa0030862000c8
:1028c0009040780020c5b30080cf50000500320052
:1028d000308620009040780020c7b30080cf5000a1
:1028e00002003a0010c0b3004c01370030862000cf
:1028f00090407800c0c4b30080cf50000500320083
:102900003086200090407800c0c6b30080cf5000d1
:1029100002003a0020c0b30040013700308620009a
:102920009040780010c4b30080cf50000500320002
:10293000308620009040780010c6b30080cf500051
:1029400002003a0030c0b300340137003086200066
:1029500090407800d0c4b30080cf50000500320012
:102960003086200090407800d0c6b30080cf500061
:1029700016003a003086200080fe07000000e000cc
:1029800010003200928320009183200030862000c6
:1029900057fe07005042800061428000704288006c
:1029a000814288006011b8008000eb009083200015
:1029b000b5f80700504288006142880050c0b3005b
:1029c000160137000040eb0014013700308620006c
:1029d0009040780050c5b30080cf50000500320011
:1029e000308620009040780050c7b30080cf500060
:1029f00002003a0060c0b3000801370030862000b2
:102a00009040780040c4b30080cf500005003200f1
:102a1000308620009040780040c6b30080cf500040
:102a200002003a0070c0b300fc003700308620007e
:102a30009040780050c4b30080cf500005003200b1
:102a4000308620009040780050c6b30080cf500000
:102a500002003a0080c0b300f0003700308620004a
:102a60009040780020c4b30080cf500005003200b1
:102a7000308620009040780020c6b30080cf500000
:102a800002003a0090c0b300e40037003086200016
:102a90009040780030c4b30080cf50000500320071
:102aa000308620009040780030c6b30080cf5000c0
:102ab00009003a00408620009040780020c3b3000f
:102ac00080cf500002003a00a0c0b300d30037000e
:102ad00040c0b300d100370030862000904078001d
:102ae00070c5b30080cf5000050032003086200052
:102af0009040780070c7b30080cf500020003a00ab
:102b0000308620001dfe07000000e0001a003200a1
:102b1000f28320009183200030862000f4fd07001e
:102b200050428000614280007042880081428800eb
:102b30006011b8008000eb009083200052f807007d
:102b40005042880061428800b0428000c14280004b
:102b5000d0428800e14288006011b8008000eb009c
:102b6000f083200048f80700b0428800c142880086
:102b7000b0c0b300a90037000040eb00a700370049
:102b8000308620009040780030c5b30080cf5000e0
:102b900005003200308620009040780030c7b30036
:102ba00080cf500002003a00c0c0b3009b00370045
:102bb0003086200090407800a0c5b30080cf500040
:102bc000050032003086200090407800a0c7b30096
:102bd00080cf50001c003a004086200090407800d2
:102be00010c3b30080cf500002003a00d0c0b30041
:102bf0008a003700408620009040780020c3b30050
:102c000080cf500002003a00e0c0b30083003700dc
:102c1000408620009040780030c3b30080cf500041
:102c200002003a00f0c0b3007c003700408620006c
:102c30009040780040c3b30080cf500002003a00bb
:102c400000c1b30075003700308620009040780046
:102c500000c5b30080cf5000050032003086200050
:102c60009040780000c7b30080cf50006a003a005f
:102c7000408620009040780010c4b30080cf500000
:102c800005003200408620009040780010c6b30056
:102c900080cf500016003a0030862000b7fd0700b4
:102ca0000000e00010003200928320009183200099
:102cb000308620008efd0700504280006142800077
:102cc00070428800814288006011b8008000eb00eb
:102cd00090832000ecf70700504288006142880092
:102ce00010c1b3004d0037000040eb004b0037002f
:102cf000408620009040780050c4b30080cf500040
:102d000005003200408620009040780050c6b30095
:102d100080cf500016003a003086200097fd070053
:102d20000000e00010003200f2832000f183200058
:102d3000308620006efd0700b0428000c142800056
:102d4000d0428800e14288006011b8008000eb00aa
:102d5000f0832000ccf70700b0428800c142880011
:102d600020c1b3002d0037000040eb002b003700de
:102d7000408620009040780030c4b30080cf5000df
:102d800005003200408620009040780030c6b30035
:102d900080cf500020003a003086200077fd0700e9
:102da0000000e0001a003200f2832000918320002e
:102db000308620004efd07005042800061428000b6
:102dc00070428800814288006011b8008000eb00ea
:102dd00090832000acf707005042880061428800d1
:102de000b0428000c1428000d0428800e1428800a9
:102df0006011b8008000eb00f0832000a2f707000c
:102e0000b0428800c142880030c1b30003003700df
:102e10000040eb00010037000040eb000080fa00aa
:102e2000000006000000fa00e0852000c1c0b300e9
:102e3000014878000086200031c0b30001487800c6
:102e40001086200081c0b300014878002086200051
:102e5000d1c0b30001487800120020000300200018
:102e6000e08020002f020700804088009140880009
:102e7000d0408000e20f500034003200e20f5000da
:102e800005003e000000e00008003200e10f5000a5
:102e90001b003200bc003700e30f5000700032000e
:102ea000e40f5000b1003200b7003700c04080008e
:102eb0000000e00007003200c081200061c0b300c4
:102ec000014878001200200003002000c08120008b
:102ed0003a0207008040800091408000e00f5000df
:102ee000e08f5800ab0032000ec8bf00e64f500024
:102ef000aa003a0010002000d0408800b00037003f
:102f00008040800091408000e00f5000e08f58002a
:102f1000a4003200a0408000b1408000e280200088
:102f2000124178003386200000804100024878007a
:102f3000a0408000b140800061004000e080480077
:102f4000a0408800b14088009d00370060408000ac
:102f5000e10f50000d003a001428ef001628ef0092
:102f600043020700c081200061c0b300014878001f
:102f70001200200003002000c08120000f02070083
:102f800010002000d04088008d0037008040800075
:102f900091408000e00f5000e08f58001e0032008a
:102fa0000ec8bf00ed4f50001b003200a240800051
:102fb000b3408000d000200001002000800f5100ad
:102fc000818f59000e003e00a0408000b14080007b
:102fd000e28020001241780033862000008041000a
:102fe00002487800a0408000b140800061004000ad
:102ff000e0804800a0408800b1408800060037000b
:103000001428ef001628ef001902070040002000e6
:10301000d04088006a0037008040800091408000e6
:10302000e00f5000e08f5800600032000ec8bf0073
:10303000ed4f50005f003a00a0408000b14080009a
:10304000e280200012417800338620000080410099
:103050000248780030002000d04088005800370037
:1030600015fe0700f185200080487800f0852000db
:10307000104078000004e000030032003186200098
:10308000c0822000d6f60700f085200010407800ae
:103090000080fb00cf80de00320120000300200012
:1030a000820f5000838f580044003e0000600100f2
:1030b00026003700130037001300370013003700d5
:1030c00013003700130037001300370013003700d8
:1030d00013003700130037001800370016003700c0
:1030e00007003700100037001000370010003700cd
:1030f00010003700120037001200370012003700ae
:103100001900370018003700170037001600370085
:103110001500370014003700130037001200370085
:1031200011003700100037000f0037000e00370085
:103130000d0037000c0037000b0037000a00370085
:103140000900370008003700070037003200200070
:1031500003002000e08f20009801070010002000ed
:10316000d040880000000000150037003200200029
:1031700003002000e08f20009001070010002000d5
:10318000d04088000e00370010002000d04088009a
:103190000b003700000000000900370000000000ad
:1031a00007003700000000000500370000000000a5
:1031b000030037000000000001003700000000009d
:1031c0000080fa00000006000000fa0001118000f3
:1031d000f0cf2f0000806000001188002062a9005d
:1031e0002002a9000111800090ff2f0000806000e4
:1031f0000011880023a2a90023e2a9001111800078
:10320000f0f32f00008060000070a0001011880013
:10321000301020004011880021e2a8000096200014
:1032200001002000ff0307002342a80000772100cf
:1032300001002000fb03070081118000f0cf2f0068
:1032400000806000801188003062a9003002a9006f
:103250008111800090ff2f000080600080118800a5
:1032600033a2a90033e2a90091118000f0f32f00ee
:10327000008060000070a000901188004011800064
:10328000c011880031e2a800009620000100200053
:10329000e40307003342a80000772100010020006a
:1032a000e00307000080fa00000006000000fa00ba
:1032b000d0002000010020008301070000408800aa
:1032c000d0002000010020007f010700104088008e
:1032d000d0002000010020007b0107002040880072
:1032e000d000200001002000770107003040880056
:1032f0000080fa00000006000000fa0021e2a800a9
:103300000096200001002000c60307002342a80009
:103310000077210001002000c20307000080fa00ae
:10332000000006000000fa002342a90000f421007a
:1033300001002000bb03070021e2a9000080fa0081
:10334000000006000000fa0011118000002020009b
:10335000008060000000e000020032001000200049
:10336000010037000000eb000080fa0000000600ba
:103370000000fa00111180000010200000806000a1
:103380000000e00002003a001000200001003700b9
:103390000000eb000080fa00000006000000fa00c8
:1033a00010118000610060000000e00002003200a7
:1033b00010002000010037000000eb000080fa0040
:1033c000000006000000fa0010118000700060008c
:1033d0000000e00002003200100020000100370071
:1033e0000000eb000080fa00000006000200fa0076
:1033f000000f780030118000804078001e007800b7
:10340000014878000080fa00000006000200fa007f
:10341000000f78001e007800104078000080fb004c
:10342000201188000080fa00000006000000fa0069
:1034300031e2a80000962000010020007903070077
:103440003342a80000772100010020007503070027
:103450000080fa00000006000000fa003342a900d4
:1034600000f42100010020006e03070031e2a900f2
:103470000080fa00000006000000fa0091118000b0
:1034800000202000008060000000e0000200320008
:1034900010002000010037000000eb000080fa005f
:1034a000000006000000fa009111800000102000ca
:1034b000008060000000e00002003a0010002000e0
:1034c000010037000000eb000080fa000000060059
:1034d0000000fa0090118000610060000000e00030
:1034e0000200320010002000010037000000eb0055
:1034f0000080fa00000006000000fa009011800031
:10350000700060000000e0000200320010002000a7
:10351000010037000000eb000080fa000000060008
:103520000200fa00000f7800b0118000804078009f
:103530001e007800014878000080fa0000000600b4
:103540000200fa00000f78001e007800104078009a
:103550000080fb00a01188000080fa000000060037
:103560000000fa0001118000f0cf2f000080600001
:103570000011880021e2a8002062a9002002a90011
:103580000111800090ff2f00008060000011880072
:10359000301020004011880020c2a8008111800056
:1035a000f0cf2f00008060008011880031e2a80079
:1035b0003062a9003002a9008111800090ff2f0025
:1035c000008060008011880040118000c0118800d8
:1035d00030c2a8000080fa00000006000c00fa00cb
:1035e0003007980042079800530798006000b80021
:1035f000008fbe0083c0a800000024009002880055
:103600000e00370010408000e40047001901070059
:103610001e007800be00900000804000ce40900068
:103620000148780012002000030020001e0f410016
:103630005e9749000000240090028800104080003e
:10364000540107000000e00006003a004e00900020
:10365000de0090001e01be00800f5100818f5900d6
:10366000e8ff35005220ef001e00be000080fa0087
:10367000000006000a00fa002007980032079800b0
:10368000430798006000b800008fbe0083c0a80008
:103690000000240090028800004080003d010700e7
:1036a0000000e0001000320023a2a90023e2a900dc
:1036b0000e0037001e007800ae0090000080400031
:1036c00090407800004080009d000700120020001c
:1036d000030020001e0f41005e97490000002400f7
:1036e00090028800010037000000000000408000c8
:1036f000150107000000e00006003a003e009000bf
:10370000ce0090001e01be00800f5100818f590035
:10371000e8ff35005220ef001e00be000080fa00d6
:10372000000006000c00fa003007980042079800dd
:10373000530798006000b800008fbe0083c0a80047
:1037400000002400900288000e0037003040800006
:10375000e4004700c70007001e007800be0090008c
:1037600000804000ce409000014878001200200008
:10377000030020001e0f41005e9749000000240056
:103780009002880030408000020107000000e00045
:1037900006003a004e009000de0090001e01be00c0
:1037a000800f5100818f5900e8ff35005220ef0053
:1037b0001e00be000080fa00000006000a00fa00a9
:1037c0002007980032079800430798006000b8006f
:1037d000008fbe0083c0a800000024009002880073
:1037e00020408000eb0007000000e00011003200e4
:1037f00033a2a90033e2a90097e0a8000e00370029
:103800001e007800ae0090000080400090407800dc
:10381000204080004a000700120020000300200022
:103820001e0f41005e9749000000240090028800ae
:10383000010037000000000020408000c2000700a7
:103840000000e00006003a003e009000ce0090002c
:103850001e01be00800f5100818f5900e8ff350026
:103860005220ef001e00be000080fa00000006009b
:103870000200fa0003003700304080008e0078001c
:103880007c00070030408000c20007000000e0001c
:10389000f9ff32000080fa00000006000200fa0082
:1038a00003003700104080008e0078007100070090
:1038b00010408000b70007000000e000f9ff320070
:1038c0000080fa00000006000600fa0010079800c9
:1038d000210798002001200097f40700000f7800ce
:1038e0001e00900094f40700800078001e0078000d
:1038f000010898001e0178006000b8000089be0031
:103900001e0178006000b800200198003101980085
:103910001e0178006000b800400198005101980035
:103920001e0078001e019000ae0190006200980019
:10393000730098001e0078000080fa000000060066
:103940000800fa002007980061479800ae00900038
:103950001107980010002000000f78001e00900052
:10396000000990001e009000b00090002000900020
:103970000000780000004100ee409000014878000f
:103980001e009000b00090002000900061004000f8
:10399000e08048001e01900020019800310198004d
:1039a0001e00900020019000b00190001e009000c9
:1039b000f000900060009000800f5100818f59004e
:1039c000040035001e0190006000b800200198003e
:1039d000310198001e00900040019000d00190003d
:1039e0001e009000f000900060009000800f5100d9
:1039f000818f590009003d001e009000d00090000a
:103a00004000900061004000e08048001e019000ee
:103a10004001980051019800130037001e009000eb
:103a20001000be0061004000e08048001e019000d0
:103a30000089be001e0090001001be001e00900014
:103a4000f000900060009000800f5100818f5900bd
:103a5000030035001e0190006000b8000089be0020
:103a60000000eb00000f78001e0078000080fa00d4
:103a7000000006000800fa002007980031079800af
:103a8000ae0090001107980010002000000f780091
:103a90001e009000d000900040009000e00f500009
:103aa000e08f5800230032001e00900000099000b3
:103ab0001e0090001000be000000780000004100d1
:103ac000904078003e009000014878001e00900071
:103ad0001000be0061004000e08048001e01900020
:103ae0000089be001e0090001001be001e00900064
:103af000f000900060009000800f5100818f59000d
:103b0000030035001e0190006000b8000089be006f
:103b10001e009000d0009000400090006100500016
:103b2000e08058001e01900040019800510198006b
:103b3000020037000000eb00000f78001e00780044
:103b40000080fa00000006000400fa001007980048
:103b50009e009000010f78001e0078004001900048
:103b6000d00190001e007800f000900060009000ee
:103b700000006900818069000080700000f0a700eb
:103b80000000ea000000e9004f00de000080fa00bb
:103b9000000006000400fa00100798009e00900044
:103ba000010f78001e007800d000900040009000c7
:103bb0000080700000f0a7000000ea000000e900ab
:103bc0004f00de000080fa00000006000000fa004e
:103bd000520007002c0007006200070012000700d7
:103be0000080fa00000006000000fa00cdfd07008a
:103bf0002135800000fe2f00008060000020a00022
:103c00002035880011368000f00f2e008080600083
:103c1000003020000100700010368800b6fd07005b
:103c20000080fa00000006000000fa002135800044
:103c300000fe2f00008060002035880031358000b4
:103c400000fe2f00008060000010a00030358800ca
:103c500001368000f00f2e008080600000302000d0
:103c6000010070000036880081368000f00f2e00c1
:103c700080806000005020000100700080368800c5
:103c80000080fa00000006000000fa00c082a900cf
:103c9000c0e2a900c102a900c122a800c142a90036
:103ca000c8a2a800c8c2a800c8e2a800c902a8000b
:103cb000c922a800c982a900c9a2a900c9c2a90035
:103cc000c9e2a900d042a800d062a800d082a80012
:103cd000d0a2a800d0c2a900d0e2a900d102a900b8
:103ce000d122a900c722a800ce02a800ce42a80077
:103cf000ce82a800cea2a800cec2a800cee2a80024
:103d0000cf02a800cf22a800d662a800d682a800c1
:103d1000d6a2a8000080fa00000006000000fa0009
:103d20000080eb00601988002c03a9002c23a80058
:103d30002c43a8002c63a8002c83a8002ca3a80067
:103d40002cc3a9002ce3a8002d03a8002d23a80054
:103d50002d43a8002d63a9002d83a9000080fa003f
:103d6000000006000000fa006140a80062a0a80060
:103d700062c0a80062e0a8006300a8006360a80019
:103d80006320a8006340a8006380a8008660a900a3
:103d90000080fa00000006000000fa001102800016
:103da000f0f12f0000806000100288000080fa000f
:103db000000006000000fa0011028000000e200042
:103dc00001007000100288000080fa000000060068
:103dd0000000fa009460a8009580a8009560a800f3
:103de00097e0a80097c0a8009c20a8009c40a800cd
:103df0009660a80021068000f0f82f008080600007
:103e000000052000010070002006880041058000a8
:103e1000f0ff28000080600000e0a000400588005e
:103e20005105800080ff2f00008060003000b3004b
:103e30005005880021068000f08f2f0080806000f0
:103e400000502000010070002006880091058000cd
:103e5000f08f2f000080600000a0a0009005880077
:103e600091058000f0ff28008080600000002300a2
:103e7000010070009005880061058000f0ff2800b7
:103e80000080600000d0a00060058800210580004f
:103e9000f0ff28000080600000c0a000200588001e
:103ea0000080fa00000006000000fa009580a900da
:103eb0009c20a9009560a9000080fa00000006007f
:103ec0000000fa0097e0a9009c40a90097c0a90053
:103ed0000080fa00000006000000fa0095a0a9008a
:103ee0000080fa00000006000000fa009460a900bb
:103ef0000080fa00000006000000fa009660a900a9
:083f00000080fa000000060039
:020000040000fa
:103f08009e080000280000000000000000080000d3
:103f18000e00000000000000fe0800000400000081
:103f2800020000003f3e0000000000001c080000e6
:103f380054000000000000000e0800000e00000001
:103f4800000000000e09000002000000020000004e
:103f58000400000002090000040000000000000046
:103f6800060900000400000002000000000006002e
:103f780009000000c6080000200000000200000040
:103f88000a000000006400000000e80003000000d0
:103f98001027000000a0860001004000420f00002a
:103fa800809698000000e100f50500007008000008
:103fb8002e000000020000000001020003040500ba
:103fc80006070800090a0b000c0d0e000f0a0b006b
:103fd8000c0d0e000f303100323334003536370007
:103fe80038396100626364006566410042434400f9
:103ff8004546000000000000e60800001800000028
:10400800020000000000200041000000c84200003b
:10401800401c460020bcbe004cca1b000e5aae0015
:10402800c59d74000a09000004000000000000009b
:10403800100900000200000000000000000000005d
:020000040000fa
:104048000200fa00313a800000e02f000080600092
:10405800e001b300303a8800213a800000fe2f00ca
:1040680000806000203a8800213a8000f0f32f0099
:1040780000806000203a880030002000000f78009f
:104088001e01780080072000a10920003374200059
:10409800804978008149780082497800103a800088
:1040a800000178000200a0006004200071052000d3
:1040b800237420008049780081497800824978007b
:1040c80000000000103a8000610060000000e0007d
:1040d800fcff3a0000000000113a800000002700b1
:1040e8008080600000002300808f5000faff3a00b3
:1040f800a00020000080fa00000006000000fa007e
:1041080011198000f0ff21000080600000d0a0009d
:104118001019880000c2b30024e3b70025e3a90002
:1041280011198000f0cf2f0000806000101988005e
:104138004119800000fe2f00008060006000b3007d
:104148004019880028e3a90001198000000e20000a
:10415800010070000019880021198000f00f2e005e
:10416800008060000080a000201988002143a90079
:1041780001198000f0cf2f0000806000001988002e
:104188002043a80021e3a8000080fa0000000600f0
:104198000000fa00000000000019800061006000c3
:1041a8000000e000fcff3200001880000080fa00e8
:1041b800000006000000fa00f1e3a800f1a3a9003e
:1041c800f183a800f103a900811f800000f82f00e7
:1041d800808060001004200001007000801f8800ab
:1041e800f3e3a900f2e3a800f2a3a800f343a900af
:1041f800f243a800f223a8000080fa00000006009d
:104208000200fa00000f78001e0078001000780005
:0c421800b01f88000080fa0000000600c3
:020000040000fa
:10422400f03fb1000180b10006003500ee03090043
:1042340000000000403fb1000180b100fbff3d00e1
:104244001000b000203fb0000200350000800900db
:0842540000000000000006005c
:020000040000fa
:10425c000000fa0012fc070078ff070058fe070068
:10426c00d6fb0700a4ff0700d6fe070010002000b5
:08427c00c0408800ffff37007d
:020000040000fa
:0200000401f009
:04000c0000000000f0
:020000040000fa
:0200000401f009
:04001000610000008b
:020000040000fa
:0200000401f009
:04001800f6000000ee
:00000001FF
