:020000040000fa
:080000000002040000000000f2
:020000040000fa
:04000800a60400004a
:020000040000fa
:04000c00a604000046
:020000040000fa
:04001000a604000042
:020000040000fa
:04001400a60400003e
:020000040000fa
:04001800a60400003a
:020000040000fa
:04001c00a604000036
:020000040000fa
:04002000a604000032
:020000040000fa
:04002400a60400002e
:020000040000fa
:04002800a60400002a
:020000040000fa
:04002c00a604000026
:020000040000fa
:04003000a604000022
:020000040000fa
:04003400a60400001e
:020000040000fa
:04003800a60400001a
:020000040000fa
:04003c00a604000016
:020000040000fa
:04004000a604000012
:020000040000fa
:04004400a60400000e
:020000040000fa
:04004800a60400000a
:020000040000fa
:04004c00a604000006
:020000040000fa
:04005000a604000002
:020000040000fa
:040054002203000083
:020000040000fa
:04005800d0020000d2
:020000040000fa
:04005c00a6040000f6
:020000040000fa
:04006000a6040000f2
:020000040000fa
:04006400a6040000ee
:020000040000fa
:04006800a6040000ea
:020000040000fa
:04006c00a6040000e6
:020000040000fa
:04007000a6040000e2
:020000040000fa
:04007400a6040000de
:020000040000fa
:04007800a6040000da
:020000040000fa
:04007c00a6040000d6
:020000040000fa
:04008000a6040000d2
:020000040000fa
:04008400a6040000ce
:020000040000fa
:04008800a6040000ca
:020000040000fa
:04008c00a6040000c6
:020000040000fa
:04009000a6040000c2
:020000040000fa
:04009400a6040000be
:020000040000fa
:04009800a6040000ba
:020000040000fa
:04009c00a6040000b6
:020000040000fa
:0400a0000a0400004e
:020000040000fa
:0400a400be03000097
:020000040000fa
:0400a800a6040000aa
:020000040000fa
:0400ac00a6040000a6
:020000040000fa
:0400b000a6040000a2
:020000040000fa
:0400b400a60400009e
:020000040000fa
:0400b800a60400009a
:020000040000fa
:0400bc00a604000096
:020000040000fa
:0400c000a604000092
:020000040000fa
:0400c400a60400008e
:020000040000fa
:0400c800a60400008a
:020000040000fa
:0400cc00a604000086
:020000040000fa
:0400d000a604000082
:020000040000fa
:0400d400a60400007e
:020000040000fa
:0400d800a60400007a
:020000040000fa
:0400dc00a604000076
:020000040000fa
:0400e000a604000072
:020000040000fa
:0400e400a60400006e
:020000040000fa
:0400e800a60400006a
:020000040000fa
:0400ec00a604000066
:020000040000fa
:0400f000a604000062
:020000040000fa
:0400f400a60400005e
:020000040000fa
:0400f800a60400005a
:020000040000fa
:0400fc00a604000056
:020000040000fa
:04010000a604000051
:020000040000fa
:04010400a60400004d
:020000040000fa
:04010800a604000049
:020000040000fa
:04010c00a604000045
:020000040000fa
:04011000a604000041
:020000040000fa
:04011400a60400003d
:020000040000fa
:04011800a604000039
:020000040000fa
:04011c00a604000035
:020000040000fa
:04012000a604000031
:020000040000fa
:04012400a60400002d
:020000040000fa
:04012800a604000029
:020000040000fa
:04012c00500300007c
:020000040000fa
:04013000380400008f
:020000040000fa
:04013400a60400001d
:020000040000fa
:04013800a604000019
:020000040000fa
:04013c00a604000015
:020000040000fa
:04014000a604000011
:020000040000fa
:04014400a60400000d
:020000040000fa
:04014800a604000009
:020000040000fa
:04014c00a604000005
:020000040000fa
:04015000a604000001
:020000040000fa
:04015400a6040000fd
:020000040000fa
:04015800a6040000f9
:020000040000fa
:04015c00a6040000f5
:020000040000fa
:04016000a6040000f1
:020000040000fa
:04016400a6040000ed
:020000040000fa
:04020800a604000048
:020000040000fa
:04020c00a604000044
:020000040000fa
:04021000a604000040
:020000040000fa
:04021400a60400003c
:020000040000fa
:04021800a604000038
:020000040000fa
:04021c00a604000034
:020000040000fa
:04022000a604000030
:020000040000fa
:04022400a60400002c
:020000040000fa
:04022800a604000028
:020000040000fa
:04022c00a604000024
:020000040000fa
:04023000a604000020
:020000040000fa
:04023400a60400001c
:020000040000fa
:04023800a604000018
:020000040000fa
:04023c00a604000014
:020000040000fa
:04024000a604000010
:020000040000fa
:04024400a60400000c
:020000040000fa
:04024800a604000008
:020000040000fa
:04024c00a604000004
:020000040000fa
:04025000a604000000
:020000040000fa
:040254002203000081
:020000040000fa
:04025800d0020000d0
:020000040000fa
:04025c00a6040000f4
:020000040000fa
:04026000a6040000f0
:020000040000fa
:04026400a6040000ec
:020000040000fa
:04026800a6040000e8
:020000040000fa
:04026c00a6040000e4
:020000040000fa
:04027000a6040000e0
:020000040000fa
:04027400a6040000dc
:020000040000fa
:04027800a6040000d8
:020000040000fa
:04027c00a6040000d4
:020000040000fa
:04028000a6040000d0
:020000040000fa
:04028400a6040000cc
:020000040000fa
:04028800a6040000c8
:020000040000fa
:04028c00a6040000c4
:020000040000fa
:04029000a6040000c0
:020000040000fa
:04029400a6040000bc
:020000040000fa
:04029800a6040000b8
:020000040000fa
:04029c00a6040000b4
:020000040000fa
:0402a0000a0400004c
:020000040000fa
:0402a400be03000095
:020000040000fa
:0402a800a6040000a8
:020000040000fa
:0402ac00a6040000a4
:020000040000fa
:0402b000a6040000a0
:020000040000fa
:0402b400a60400009c
:020000040000fa
:0402b800a604000098
:020000040000fa
:0402bc00a604000094
:020000040000fa
:0402c000a604000090
:020000040000fa
:0402c400a60400008c
:020000040000fa
:0402c800a604000088
:020000040000fa
:0402cc00a604000084
:020000040000fa
:0402d000a604000080
:020000040000fa
:0402d400a60400007c
:020000040000fa
:0402d800a604000078
:020000040000fa
:0402dc00a604000074
:020000040000fa
:0402e000a604000070
:020000040000fa
:0402e400a60400006c
:020000040000fa
:0402e800a604000068
:020000040000fa
:0402ec00a604000064
:020000040000fa
:0402f000a604000060
:020000040000fa
:0402f400a60400005c
:020000040000fa
:0402f800a604000058
:020000040000fa
:0402fc00a604000054
:020000040000fa
:04030000a60400004f
:020000040000fa
:04030400a60400004b
:020000040000fa
:04030800a604000047
:020000040000fa
:04030c00a604000043
:020000040000fa
:04031000a60400003f
:020000040000fa
:04031400a60400003b
:020000040000fa
:04031800a604000037
:020000040000fa
:04031c00a604000033
:020000040000fa
:04032000a60400002f
:020000040000fa
:04032400a60400002b
:020000040000fa
:04032800a604000027
:020000040000fa
:04032c00500300007a
:020000040000fa
:04033000380400008d
:020000040000fa
:04033400a60400001b
:020000040000fa
:04033800a604000017
:020000040000fa
:04033c00a604000013
:020000040000fa
:04034000a60400000f
:020000040000fa
:04034400a60400000b
:020000040000fa
:04034800a604000007
:020000040000fa
:04034c00a604000003
:020000040000fa
:04035000a6040000ff
:020000040000fa
:04035400a6040000fb
:020000040000fa
:04035800a6040000f7
:020000040000fa
:04035c00a6040000f3
:020000040000fa
:04036000a6040000ef
:020000040000fa
:04036400a6040000eb
:020000040000fa
:100400004f8f20000e7f24000e01880000000000a6
:10041000000020000000e000020032000001200087
:100420002002880014000700bf0107000000e00060
:1004300003003a0040722100010020000200370052
:100440000000200001002000810f70000100320038
:1004500014000700000020000000e000020032004d
:1004600000000200000000007e19020000000000f1
:100470000040da000000fe004440a9008001200096
:100480000000e0000300320000002000a00188000e
:100490004440a800000006008a1f78008b1f7800e7
:1004a0000000060091018800800478000000eb0045
:1004b0001a003700e284440032a0b4009905ba0063
:1004c000e284440032a0b4009906ba00e2844400f9
:1004d00032a0b4000006eb00476fde00fd07b2005b
:1004e000636ce10003003a00ebff07000000eb0043
:1004f0000a003700606ce10004003a00005deb0088
:100500008b05e900fdff3e00040037006168e10053
:10051000010032000086eb000b00070019c7ba008b
:100520001905ba000e04e00003003a000a00e000da
:10053000e0ff3a0000000600fe07b2009e018800be
:100540008a047800f5ff3700395dba008b05e900b1
:100550000c003200295dba008b05e900080032006a
:100560000c00e00003003a00e284440032a0b40032
:10057000f5ff370019ddba008b05e900faff3a00f4
:100580008904e800e184440032a0b40000000600c1
:10059000260a040000000000000004000000000023
:1005a0003600f800809fbe00829fbe00849fbe0080
:1005b000869fbe000200fa0000408000ae090700de
:1005c0000000e00002003a0023a2a90023e2a800f4
:1005d000950707000000e00010003a00004080008e
:1005e000a50907000000e0000c003a0002003700f7
:1005f0000e007800be0707008b0707000000e00030
:1006000008003a00004080008e0078005209070080
:100610000000e000f6ff3a00030037008580a900e3
:1006200001003700000000000080fa004f03be0008
:100630004f02be004f01be004f00be003600f90061
:10064000004006003600f800809fbe00829fbe007a
:10065000849fbe00869fbe000200fa00050037009e
:100660000e0078009a0707009e4078001040800036
:10067000ec080700820707000000e000f8ff3200e6
:100680008560a9000080fa004f03be004f02be0043
:100690004f01be004f00be003600f90000400600ca
:1006a0003600f800809fbe00829fbe00849fbe007f
:1006b000869fbe000200fa00100020005040880013
:1006c00050c1b30008e8b70008c8bf000080fb00b5
:1006d00012002000030020001f08070010118000f6
:1006e000620060000000e000050032001011800090
:1006f000640060000000e00001003a002222a9002e
:1007000010118000640060000000e000130032005f
:1007100010118000620060000000e0000f003a004d
:10072000010037000000000010118000640060002c
:100730000000e00002003a000e00780064070700a5
:1007400010118000640060000000e000f5ff32003e
:100750000e0078005e070700000000008c20a90052
:100760000080fa004f03be004f02be004f01be00e2
:100770004f00be003600f900004006003600f800c9
:10078000809fbe00829fbe00849fbe00869fbe00e9
:100790000200fa0020408000370907000000e00056
:1007a00002003a0033a2a90033e2a8006b07070059
:1007b0000000e0000f003a00204080002e090700f2
:1007c0000000e0000b003a00020037000e00780045
:1007d00094070700610707000000e00005003a00e9
:1007e000204080008e007800db0807000000e00059
:1007f000f6ff3a0087e0a9000080fa004f03be0030
:100800004f02be004f01be004f00be003600f9008f
:10081000004006003600f800809fbe00829fbe00a8
:10082000849fbe00869fbe000200fa0005003700cc
:100830000e007800730707009e407800304080006b
:10084000780807005b0707000000e000f8ff3200af
:1008500087c0a9000080fa004f03be004f02be000f
:100860004f01be004f00be003600f90000400600f8
:100870003600f800809fbe00829fbe00849fbe00ad
:10088000869fbe000200fa00100020006040880031
:1008900050c1b30008e8b70008c8bf000080fb00e3
:1008a0001200200003002000fd07070090118000c7
:1008b000620060000000e00005003200901180003e
:1008c000640060000000e00001003a003222a9004c
:1008d00090118000640060000000e000130032000e
:1008e00090118000620060000000e0000f003a00fc
:1008f00001003700000000009011800064006000db
:100900000000e00002003a000e0078003d070700fa
:1009100090118000640060000000e000f5ff3200ec
:100920000e00780037070700000000008c40a90087
:100930000080fa004f03be004f02be004f01be0010
:100940004f00be003600f900004006000040da000b
:100950000000fe000a00fa0011002000b1bf9f0055
:10096000c0bf9f006a805700d40207004fb89700ad
:100970000080fa00000006000a00fa00e20f5000b2
:1009800034003e0080478000e10f50000300320039
:10099000e20f500011003a000c0037000322200043
:1009a0000300e00001003a000040da002002e2000b
:1009b000020035002822ef0021e2a8002342ab000c
:1009c0000d003a002342a8000b003700032320004b
:1009d0000300e00001003a000040da003002e200cb
:1009e000020035003822ef0031e2a8003342ab00ac
:1009f00001003a003342a800820178000b00370062
:100a00003102fb00e10f500004003a002322ab004a
:100a1000feff3a0024118800030037003322ab00a8
:100a2000feff3a00a41188008301e9000300e00002
:100a3000f3ff3a00e10f500003003a002302ab003d
:100a4000feff32000b0037003302ab00feff320026
:100a50000800370033002000b3bf9f00c0bf9f00d5
:100a6000d1bf9f00e2bf9f006a8057009502070038
:100a70006fb99700020078000080fa0000000600bd
:100a80000a00fa0051002000b1bf9f00c0bf9f00c4
:100a90006a8057008d0207005fb897000080fa0057
:100aa00000000600889fbe00800478009047800008
:100ab0000000e00004003a000e0007000084eb0094
:100ac0000000e00008003500984780000900e000c1
:100ad0000500320009004400060007000000e000a5
:100ae00001003d000084eb00080078004f04be00c8
:100af00000000600800078000100e00003003a00da
:100b00000000200090478800000005000080eb00f6
:100b100002002000828f500002003e0091478800b2
:100b20000000eb0000000600000005006900e10085
:100b3000040035006d00e100030034000002b10044
:100b4000010032000000050010000500889fbe0073
:100b500000047800214780000100e000020032001c
:100b6000010078000d00370031478000608e2000c2
:100b700004003700910f5400250036000180e80082
:100b8000910090000100e000faff3a0010003700e9
:100b9000920f54001e0036000280e8001001780019
:100ba0000200e000faff3a001101780031478000ae
:100bb000608e200004003700910f540014003600ae
:100bc0000180e80091009000828f5000faff3a0007
:100bd00069478000888f5400010031008804780044
:100be00009007800610007000000e00004003a00fe
:100bf000888f5400050032008904d100f5ff3700ca
:100c0000091878000d010700d2ff37000000eb0043
:100c10004f04be0000000600881f780063044000f7
:100c20000800a1008000eb00800f54002100360076
:100c3000e30f540001003e00480020000800780047
:100c4000c2ff07008000eb000000e0001900320046
:100c5000900078009101780064815100880f510064
:100c600003003100110190000208780007003700ee
:100c7000088140000208780091019000130198005b
:100c8000100178001109140088087800100178001c
:100c90000000eb000200e00004003200920190002e
:100ca0000300e000010032000280e80020478800d5
:100cb0008180e800010078004f0478000000060001
:100cc0004184200095000700800078000080eb0040
:100cd0000100e0000400350041842000a000200055
:100ce0002c0007004f80de000000060000017800a5
:100cf000b1417800035978000304e000fcff3a009a
:100d000000000600889fbe00810478000000e0001b
:100d100002003a00584780000100370000047800c4
:100d20000800be001f010700000444001804e00092
:100d300004003a00808e2000504788000004eb0039
:100d4000070037000800be00f5000700000044005f
:100d50001004e000010032000058eb00504788000a
:100d6000080078004f04be000000060080007800f4
:100d70000000eb000100e0000500340001007800f5
:100d800048ff0700e10f400001003a000000eb00bf
:100d900000000600889fbe008a1f78000004be0085
:100da000c900900069009000808f50000600390053
:100db000090078000b010700800078000080eb003c
:100dc0000100e00017003500084578004900900058
:100dd00008587800c00498001900780000b8a300f3
:100de00004003a0000a8a30008003200ea4f5400b3
:100df00006003a00090078000d0007008000780026
:100e00000080eb000100e00006003a0000c0200076
:100e1000190060000200320049009000e0049800d0
:100e20000a80fb004f0578004f04be00000006005a
:100e3000889fbe008a1f7800000478000800e00048
:100e40000d003a0028892000700544008004eb0062
:100e5000580078000000e00004003200f4ff0700b2
:100e60000000e00001003d008084eb008a0f540088
:100e7000f7ff3a002500370000002200180060004c
:100e80008004eb0021003200a80490000f0037001e
:100e900009015100384090000000fb0089007800f3
:100ea000b5fe07000000e00007003c0028009000ad
:100eb0004004980060049800500c98001890a0001e
:100ec0008084eb00110037008084440048019000ca
:100ed000828f5400eeff39002800900040049800f3
:100ee0009800780002c020000281600001003a00f2
:100ef0003800900001e8a30002003200600498006e
:100f000001003700500c98008004eb0009007800c5
:100f10004f0578004f04be0000000600889fbe0009
:100f20008a9fbe0080047800010478002c003700fe
:100f3000c800900068009000808f500004003900c5
:100f400008007800a70007000000e0003700350027
:100f5000004020001800600009003200a1002000bd
:100f60000900780085000700800578000b00e0008c
:100f700003003200618514000a8545000400370033
:100f80000900780077000700000578008005eb0075
:100f900048009000e8009000808050008a8f500048
:100fa00002003100010578008005eb000a0178009d
:100fb0008900780053000700480090000a004000b4
:100fc000400498000b00e0000400320008007800a4
:100fd00097ff07000000e00014003a008a844400f4
:100fe0001904e000d2ff3a000080200018006000e1
:100ff00006003200080078008dff070080007800ae
:101000000080eb000100e00009003a0001c0200070
:10101000988060000000eb0005003200480090005e
:10102000600498000000eb00010037000080eb0036
:101030004f05be004f04be00000006000000e000a7
:101040002f003200c0017800e38f51002c003600e1
:101050000308a3002a003a00314780000100e000a5
:1010600002003200810f500004003100110098008e
:101070003047880016003700820078001101900088
:101080000200e00002003200800f5100faff390038
:101090001102780084824000850f5000180039004a
:1010a000808f520003003a0083084200010078005c
:1010b000070037000200e000030032008301400017
:1010c000830f51000e003900120098009000980024
:1010d000900090000100e000090032001001400083
:1010e000828f500006003a00428e20000009eb007b
:1010f0001001780011084100910090001100980043
:10110000000006008001780002003700b159780025
:101110000201e9000200e000fcff3a0000000600c6
:10112000000178000700370086cf520002003a0025
:101130000080510000000600344378000604e000ff
:10114000f9ff3a0082017800b24278000504e0001d
:101150000200320001027800f7ff370000805100e2
:101160000000060080007800010178003104e000f2
:10117000fdff3a0000005100000006000001eb00f6
:1011800000027800b041780081cf510001003a00a0
:10119000040178000304e000f9ff3a00020078003f
:1011a0000000060000017800080037008102780086
:1011b000354378000604e00002003a000080510048
:1011c00000000600864f5200f9ff3a0082017800c5
:1011d000324278000404e000f4ff3a00008051003d
:1011e00000000600889fbe008a1f78000004780077
:1011f000c8009000680190000000eb00828f500052
:101200003c0039001800780022002900020160002b
:10121000e20f510007003200012024000000e0002e
:1012200001003d0001202000008c70000080eb00d8
:10123000300037000200260002006000820f5000dc
:1012400009003a0038009000808f500006003900f5
:1012500008007800f6fe0700800078000080eb00b0
:101260000100e00023003a001805780000c02000cb
:101270000000650018003a00a804900060022000f9
:1012800008004000808f540013003a000020200026
:1012900061fe0700200498000000e00005003a000d
:1012a00029049800490498008904e800390498004a
:1012b000080037000a60a0000a0c7800400498007b
:1012c000012020008080400031049800400c9800ec
:1012d000500c98000c000700280090005004980063
:1012e000380090006004980000002600180c700080
:1012f0000000eb004f0578004f04be000000060020
:1013000060a2200061003700881f7800e88e20006e
:101310001804e00003003a00f9ff070020c0b30002
:10132000004c78004f04780000000600889fbe0043
:101330000004780008007800bdfe070080047800f3
:101340000004200018006000020032002800900015
:101350003aff07000000eb0020049800384090009e
:101360000004e000050035000000fb0079fd0700e7
:101370000000e000010032008084eb0018109000b3
:101380000000e00008003200bdfd07000000e000a2
:10139000010032008084eb001810900027ff070046
:1013a0000000eb00101498000008200018006000f6
:1013b000150032000001eb006000b80043892000f6
:1013c0000202d00063027a00880f520005003a0042
:1013d0000000400081804800008041000008eb00d0
:1013e0000600370061004000e08048000201e8008c
:1013f000e80f5000e08f5800f0ff3a000800780036
:101400000eff07000e003700000c780000c0eb0054
:10141000304498006002200008004000200498003a
:101420004004980050049800400c98006004980014
:10143000500c98007004980076004400000c98004e
:10144000090078004f04be0000000600881f7800e5
:101450000004eb006140b800e2ff2f00f3ff2f0013
:101460001c000700228a2000620078000000e000d3
:1014700001003200adff07000804e800e80f540047
:10148000f4ff3a004f04780000000600010020003d
:101490000100e00008003200010080000100e000cf
:1014a000050032008100e900010088008100d000c1
:1014b0000200800000b178000000060000c0da00e1
:1014c0000000060000c0da000000060000c0da00dc
:1014d00000000600020ab900001bb9000200b800b3
:0c14e00081004200810043000000060073
:020000040000fa
:1014ec00200d000000200000004400006574000086
:1014fc006563000074650000206100006c670000eb
:10150c006f20000072610000726f0000000000008c
:020000040000fa
:10151c000a00fa002007980031079800420798004b
:10152c0060a72800000f78009e0078002e00900025
:10153c00f1fd0700100798009e0090003e009000ff
:10154c00e7fd070091a728000000eb00eafd07006b
:10155c00100798001e0090000000e000030032000d
:10156c009e0090004e009000ddfd07000080fa0008
:10157c00000006000800fa00300798001000200058
:10158c00100798000000eb00200798003e00900028
:10159c000000e8009040780030c4b30080cf5000c9
:1015ac006d003a0020002000000f78005a00370030
:1015bc001e007800be0090000080400010407800b3
:1015cc000000fb000003b100e90f500002003600e0
:1015dc000000eb00320137002e0090000000e80004
:1015ec00200798002e009000e30f500002003400fa
:1015fc000000eb002a0137001e0fe8000100370045
:10160c00000000001e007800be009000008040002a
:10161c0090407800e0c2b30080cf50000800320048
:10162c001e007800be009000008040001040780042
:10163c000000fb003afd07000000e000dcff320078
:10164c001e007800be0090000080400090407800a2
:10165c00e0c2b30080cf5000080032001e007800ba
:10166c00be00900000804000104078000000fb009d
:10167c002bfd07000000e0000a0032001e0fe800fe
:10168c001e0078000000e900be00900000804000c1
:10169c0090407800e0c2b30080cf50000f003200c1
:1016ac00170037000000eb00fd0037001e0078002b
:1016bc00be00900000804000104078000000fb004d
:1016cc000003b100e90f5000020036000000eb00ef
:1016dc00f30037001e0fe800010037000000000087
:1016ec001e007800be009000008040001040780082
:1016fc000000fb000afd07000000e000ebff3200d9
:10170c001e0090000000e800100798001e0fe80073
:10171c000000eb00200798001e007800be0090002f
:10172c0000804000104078000004e000030032000c
:10173c001e009000e20f5000b1ff34001e0090001c
:10174c00e30f5000020034000000eb00d40037001f
:10175c0010002000d20037003e0090000000e8008e
:10176c009040780050c4b30080cf50000600320087
:10177c003e0090000000e8009040780010c4b300d8
:10178c0080cf50005c003a0020002000000f780051
:10179c00130037001e007800be009000008040004f
:1017ac00104078000000fb000003b100e90f50006e
:1017bc00020036000000eb00b90037002e0090004c
:1017cc000000e800200798002e009000e30f500066
:1017dc00020034000000eb00b10037001e0fe800df
:1017ec001e007800be009000008040009040780001
:1017fc00e0c2b30080cf5000080032001e00780019
:10180c00be00900000804000104078000000fb00fb
:10181c00c3fc07000000e000deff32001e00780071
:10182c00be0090000080400090407800e0c2b30001
:10183c0080cf5000080032001e007800be009000df
:10184c0000804000104078000000fb00b4fc070052
:10185c000000e0000a0032001e0fe8001e007800b5
:10186c000000e900be00900000804000904078002d
:10187c00e0c2b30080cf50001100320019003700d5
:10188c00b0a728000bfd07000000eb008400370018
:10189c001e007800be0090000080400010407800d0
:1018ac000000fb000003b100e90f500002003600fd
:1018bc000000eb007a0037001e0fe8000100370033
:1018cc00000000001e007800be0090000080400068
:1018dc00104078000000fb0091fc07000000e000c5
:1018ec00ebff32001e0fe8000000eb002007980011
:1018fc00100020006a0037003e00900090407800f5
:10190c0070c5b30080cf50003f003a00100020009b
:10191c00000f7800310037001e007800be009000e8
:10192c0000804000104078000000fb000003b10074
:10193c00e90f5000020036000000eb0058003700a1
:10194c002e0090000000e800200798001e0fe80011
:10195c0001003700000000001e007800be0090005f
:10196c0000804000104078000000fb006cfc070079
:10197c000000e000e8ff32002e009000e30f500062
:10198c00020032000000eb00450037001e0078001a
:10199c00be00900000804000104078000000fb006a
:1019ac005ffc07000000e0000a0032002e009000ef
:1019bc00e30f500007003c001e0fe8001e009000d3
:1019cc000000e800100798000000eb0020079800ca
:1019dc00020037000000eb00310037001e007800d9
:1019ec00be00900000804000104078000004e00031
:1019fc00030032001e009000e20f5000d5ff3400af
:101a0c0010002000260037003e0090009040780027
:101a1c00d0c4b30080cf500020003a00100020004a
:101a2c00000f78000e0037001e007800be009000fa
:101a3c0000804000104078000000fb000003b10063
:101a4c00e90f5000020036000000eb0014003700d4
:101a5c002e0090000000e800200798001e0fe80000
:101a6c001e007800be0090000080400010407800fe
:101a7c000000fb002afc07000000e000eaff320037
:101a8c002e009000e30f5000020032000000eb002b
:101a9c000300370010002000010037000000eb00ad
:101aac000080fa00000006000000fa00308d2000d3
:101abc009040780020c5b30080cf50000500320064
:101acc00308d20009040780020c7b30080cf5000ac
:101adc0002003a0010c0b30006013700308d200020
:101aec0090407800c0c4b30080cf50000500320095
:101afc00308d200090407800c0c6b30080cf5000dd
:101b0c0002003a0020c0b300fa003700308d2000ec
:101b1c009040780010c4b30080cf50000500320014
:101b2c00308d20009040780010c6b30080cf50005c
:101b3c0002003a0030c0b300ee003700308d2000b8
:101b4c0090407800d0c4b30080cf50000500320024
:101b5c00308d200090407800d0c6b30080cf50006c
:101b6c000c003a00308d200082fe07000000e000df
:101b7c0006003200128c2000118c2000408d2000b9
:101b8c0063fe070050c0b300da0037000040eb00e2
:101b9c00d8003700308d20009040780050c5b3003d
:101bac0080cf500005003200308d2000904078002e
:101bbc0050c7b30080cf500002003a0060c0b300a1
:101bcc00cc003700308d20009040780040c4b3002a
:101bdc0080cf500005003200308d200090407800fe
:101bec0040c6b30080cf500002003a0070c0b30072
:101bfc00c0003700308d20009040780050c4b300f6
:101c0c0080cf500005003200308d200090407800cd
:101c1c0050c6b30080cf500002003a0080c0b30021
:101c2c00b4003700308d20009040780020c4b30001
:101c3c0080cf500005003200308d2000904078009d
:101c4c0020c6b30080cf500002003a0090c0b30011
:101c5c00a8003700308d20009040780030c4b300cd
:101c6c0080cf500005003200308d2000904078006d
:101c7c0030c6b30080cf500009003a00408d2000e0
:101c8c009040780020c3b30080cf500002003a008f
:101c9c00a0c0b3009700370040c0b30095003700d8
:101cac00308d20009040780070c5b30080cf50007c
:101cbc0005003200308d20009040780070c7b300d2
:101ccc0080cf50000c003a00308d200029fe070018
:101cdc000000e00006003200728c2000118c200005
:101cec00408d20000afe0700b0c0b3008100370011
:101cfc000040eb007f003700308d200090407800d2
:101d0c0030c5b30080cf500005003200308d20006c
:101d1c009040780030c7b30080cf500002003a00ea
:101d2c00c0c0b30073003700308d200090407800a5
:101d3c00a0c5b30080cf500005003200308d2000cc
:101d4c0090407800a0c7b30080cf50001c003a0030
:101d5c00408d20009040780010c3b30080cf50001d
:101d6c0002003a00d0c0b30062003700408d200062
:101d7c009040780020c3b30080cf500002003a009e
:101d8c00e0c0b3005b003700408d2000904078002d
:101d9c0030c3b30080cf500002003a00f0c0b30053
:101dac0054003700408d20009040780040c3b300b1
:101dbc0080cf500002003a0000c1b3004d00370044
:101dcc00308d20009040780000c5b30080cf5000cb
:101ddc0005003200308d20009040780000c7b30021
:101dec0080cf500042003a00408d20009040780097
:101dfc0010c4b30080cf500005003200408d20008d
:101e0c009040780010c6b30080cf50000c003a0010
:101e1c00308d2000d7fd07000000e00006003200e6
:101e2c00128c2000118c2000508d2000b8fd070072
:101e3c0010c1b3002f0037000040eb002d0037001d
:101e4c00408d20009040780050c4b30080cf5000eb
:101e5c0005003200408d20009040780050c6b30041
:101e6c0080cf50000c003a00308d2000c1fd0700df
:101e7c000000e00006003200728c2000718c200003
:101e8c00508d2000a2fd070020c1b30019003700bf
:101e9c000040eb0017003700408d20009040780088
:101eac0030c4b30080cf500005003200408d2000bc
:101ebc009040780030c6b30080cf50000c003a0040
:101ecc00308d2000abfd07000000e0000600320062
:101edc00728c2000118c2000508d20008cfd07008e
:101eec0030c1b300030037000040eb0001003700a5
:101efc000040eb000080fa00000006000000fa0031
:101f0c00e08c2000c1c0b30001487800008d200097
:101f1c0031c0b30001487800108d200081c0b3009f
:101f2c0001487800208d2000d1c0b3000148780012
:101f3c001200200003002000e08020002f02070088
:101f4c008040880091408800d0408000e20f500013
:101f5c0034003200e20f500005003e000000e000ab
:101f6c0008003200e10f50001b003200bc003700ab
:101f7c00e30f500070003200e40f5000b10032004b
:101f8c00b7003700c04080000000e00007003200be
:101f9c00408a200061c0b300014878001200200084
:101fac0003002000408a20003a0207008040800095
:101fbc0091408000e00f5000e08f5800ab003200e1
:101fcc000ec8bf00e64f5000aa003a0010002000d7
:101fdc00d0408800b00037008040800091408000e5
:101fec00e00f5000e08f5800a4003200a0408000a9
:101ffc00b1408000e280200012417800338d200037
:10200c000080410002487800a0408000b140800070
:10201c0061004000e0804800a0408800b14088008a
:10202c009d00370060408000e10f50000d003a0029
:10203c001428ef001628ef0043020700408a200006
:10204c0061c0b3000148780012002000030020009a
:10205c00408a20000f02070010002000d0408800aa
:10206c008d0037008040800091408000e00f5000d0
:10207c00e08f58001e0032000ec8bf00ed4f50001c
:10208c001b003200a2408000b3408000d000200032
:10209c0001002000800f5100818f59000e003e007e
:1020ac00a0408000b1408000e28020001241780006
:1020bc00338d20000080410002487800a040800051
:1020cc00b140800061004000e0804800a0408800e2
:1020dc00b1408800060037001428ef001628ef00e6
:1020ec001902070040002000d04088006a00370029
:1020fc008040800091408000e00f5000e08f58003d
:10210c00600032000ec8bf00ed4f50005f003a0077
:10211c00a0408000b1408000e28020001241780095
:10212c00338d2000008041000248780030002000f0
:10213c00d0408800580037005bfe0700f18c20006f
:10214c0080487800f08c2000104078000004e000fb
:10215c0003003200318d2000408b2000e0fa070094
:10216c00f08c2000104078000080fb00cf80de0057
:10217c003201200003002000820f5000838f580092
:10218c0044003e00006001002600370013003700b9
:10219c00130037001300370013003700130037000b
:1021ac0013003700130037001300370013003700fb
:1021bc0018003700160037000700370010003700f2
:1021cc0010003700100037001000370012003700e5
:1021dc0012003700120037001900370018003700c2
:1021ec0017003700160037001500370014003700b1
:1021fc0013003700120037001100370010003700b1
:10220c000f0037000e0037000d0037000c003700b0
:10221c000b0037000a0037000900370008003700b0
:10222c00070037003200200003002000008e200041
:10223c009801070010002000d0408800000000002a
:10224c00150037003200200003002000008e200013
:10225c009001070010002000d04088000e003700cd
:10226c0010002000d04088000b0037000000000058
:10227c0009003700000000000700370000000000d4
:10228c0005003700000000000300370000000000cc
:10229c0001003700000000000080fa00000006007a
:1022ac000000fa0001118000f0cf2f0000806000c8
:1022bc00001188002062a9002002a90001118000f1
:1022cc0090ff2f00008060000011880023a2a9005d
:1022dc0023e2a90011118000f0f32f0000806000b0
:1022ec000070a000101188003010200040118800f0
:1022fc0021e2a8000096200001002000ee03070058
:10230c002342a8000077210001002000ea03070007
:10231c0081118000f0cf2f000080600080118800b8
:10232c003062a9003002a9008111800090ff2f00bb
:10233c00008060008011880033a2a90033e2a9005c
:10234c0091118000f0f32f00008060000070a0005d
:10235c009011880040118000c011880031e2a80063
:10236c000096200001002000d30307003342a80090
:10237c000077210001002000cf0307000080fa0045
:10238c00000006000000fa00d00020000100200030
:10239c008301070000408800d000200001002000cd
:1023ac007f01070010408800d000200001002000b1
:1023bc007b01070020408800d00020000100200095
:1023cc0077010700304088000080fa00000006000a
:1023dc000000fa0021e2a800009620000100200075
:1023ec00b50307002342a80000772100010020005c
:1023fc00b10307000080fa00000006000000fa009c
:10240c002342a90000f4210001002000aa030700c8
:10241c0021e2a9000080fa00000006000000fa008a
:10242c001111800000202000008060000000e000fe
:10243c000200320010002000010037000000eb0009
:10244c000080fa00000006000000fa001111800064
:10245c0000102000008060000000e00002003a0044
:10246c0010002000010037000000eb000080fa0093
:10247c00000006000000fa001011800061006000ee
:10248c000000e000020032001000200001003700c4
:10249c000000eb000080fa00000006000000fa00cb
:1024ac0010118000700060000000e000020032009b
:1024bc0010002000010037000000eb000080fa0043
:1024cc00000006000200fa00000f780030118000b6
:1024dc00804078001e007800014878000080fa00e7
:1024ec00000006000200fa00000f78001e007800c1
:1024fc00104078000080fb00201188000080fa005a
:10250c00000006000000fa0031e2a800009620004e
:10251c0001002000680307003342a8000077210067
:10252c0001002000640307000080fa000000060090
:10253c000000fa003342a90000f421000100200041
:10254c005d03070031e2a9000080fa0000000600dc
:10255c000000fa0091118000002020000080600033
:10256c000000e000020032001000200001003700e3
:10257c000000eb000080fa00000006000000fa00ea
:10258c009111800000102000008060000000e0002d
:10259c0002003a0010002000010037000000eb00a0
:1025ac000080fa00000006000000fa009011800084
:1025bc00610060000000e00002003200100020000a
:1025cc00010037000000eb000080fa00000006005c
:1025dc000000fa0090118000700060000000e00024
:1025ec000200320010002000010037000000eb0058
:1025fc000080fa00000006000200fa00000f7800cc
:10260c00b0118000804078001e00780001487800ee
:10261c000080fa00000006000200fa00000f7800ab
:10262c001e007800104078000080fb00a01188008c
:10263c000080fa00000006000000fa000111800082
:10264c00f0cf2f00008060000011880021e2a8006c
:10265c002062a9002002a9000111800090ff2f0028
:10266c0000806000001188003010200040118800ac
:10267c0020c2a80081118000f0cf2f0000806000e4
:10268c008011880031e2a8003062a9003002a90054
:10269c008111800090ff2f00008060008011880065
:1026ac0040118000c011880030c2a8000080fa00e0
:1026bc00000006000c00fa00300798004207980052
:1026cc00530798006000b800008fbe0083c0a800bc
:1026dc0000002400900288000e003700104080009b
:1026ec00e4004700190107001e007800be009000ae
:1026fc0000804000ce40900001487800120020007d
:10270c00030020001e0f41005e97490000002400ca
:10271c009002880010408000540107000000e00087
:10272c0006003a004e009000de0090001e01be0034
:10273c00800f5100818f5900e8ff35005220ef00c7
:10274c001e00be000080fa00000006000a00fa001d
:10275c002007980032079800430798006000b800e3
:10276c00008fbe0083c0a8000000240090028800e7
:10277c00004080003d0107000000e0001000320026
:10278c0023a2a90023e2a9000e0037001e00780046
:10279c00ae00900000804000904078000040800027
:1027ac009d00070012002000030020001e0f4100b6
:1027bc005e97490000002400900288000100370059
:1027cc000000000000408000150107000000e00040
:1027dc0006003a003e009000ce0090001e01be00a4
:1027ec00800f5100818f5900e8ff35005220ef0017
:1027fc001e00be000080fa00000006000c00fa006b
:10280c003007980042079800530798006000b80002
:10281c00008fbe0083c0a800000024009002880036
:10282c000e00370030408000e4004700c70007006e
:10283c001e007800be00900000804000ce4090004a
:10284c000148780012002000030020001e0f4100f8
:10285c005e97490000002400900288003040800000
:10286c00020107000000e00006003a004e00900054
:10287c00de0090001e01be00800f5100818f5900b8
:10288c00e8ff35005220ef001e00be000080fa0069
:10289c00000006000a00fa00200798003207980092
:1028ac00430798006000b800008fbe0083c0a800ea
:1028bc00000024009002880020408000eb000700fc
:1028cc000000e0001100320033a2a90033e2a9009d
:1028dc0097e0a8000e0037001e007800ae009000b4
:1028ec000080400090407800204080004a000700a3
:1028fc0012002000030020001e0f41005e974900cb
:10290c000000240090028800010037000000000045
:10291c0020408000c20007000000e00006003a00e2
:10292c003e009000ce0090001e01be00800f5100b2
:10293c00818f5900e8ff35005220ef001e00be00c9
:10294c000080fa00000006000200fa0003003700c5
:10295c00304080008e0078007c0007003040800002
:10296c00c20007000000e000f9ff32000080fa000e
:10297c00000006000200fa0003003700104080003f
:10298c008e0078007100070010408000b70007002f
:10299c000000e000f9ff32000080fa0000000600a1
:1029ac000600fa001007980021079800200120006b
:1029bc0096f80700000f78001e00900093f80700af
:1029cc00800078001e007800010898001e01780035
:1029dc006000b8000089be001e0178006000b800dd
:1029ec0020019800310198001e0178006000b800a9
:1029fc0040019800510198001e0078001e019000c3
:102a0c00ae01900062009800730098001e007800e0
:102a1c000080fa00000006000800fa002007980069
:102a2c0061479800ae00900011079800100020003c
:102a3c00000f78001e009000000990001e0090000e
:102a4c00b0009000200090000000780000004100d1
:102a5c00ee409000014878001e009000b0009000fd
:102a6c002000900061004000e08048001e019000b2
:102a7c0020019800310198001e0090002001900068
:102a8c00b00190001e009000f000900060009000db
:102a9c00800f5100818f5900040035001e019000f9
:102aac006000b80020019800310198001e009000d1
:102abc0040019000d00190001e009000f0009000aa
:102acc0060009000800f5100818f590009003d007b
:102adc001e009000d000900040009000610040006b
:102aec00e08048001e0190004001980051019800c0
:102afc00130037001e0090001000be006100400063
:102b0c00e08048001e0190000089be001e0090006d
:102b1c001001be001e009000f000900060009000bc
:102b2c00800f5100818f5900030035001e01900069
:102b3c006000b8000089be000000eb00000f7800b8
:102b4c001e0078000080fa00000006000800fa0061
:102b5c002007980031079800ae00900011079800ec
:102b6c0010002000000f78001e009000d000900094
:102b7c0040009000e00f5000e08f5800230032001e
:102b8c001e009000000990001e0090001000be0076
:102b9c000000780000004100904078003e0090005a
:102bac00014878001e0090001000be00610040003b
:102bbc00e08048001e0190000089be001e009000bd
:102bcc001001be001e009000f0009000600090000c
:102bdc00800f5100818f5900030035001e019000b9
:102bec006000b8000089be001e009000d00090006c
:102bfc004000900061005000e08058001e019000e1
:102c0c004001980051019800020037000000eb00d1
:102c1c00000f78001e0078000080fa00000006000b
:102c2c000400fa00100798009e009000010f780035
:102c3c001e00780040019000d00190001e0078002a
:102c4c00f000900060009000000069008180690035
:102c5c000080700000f0a7000000ea000000e9000e
:102c6c004f00de000080fa00000006000400fa00ad
:102c7c00100798009e009000010f78001e0078004d
:102c8c00d0009000400090000080700000f0a70081
:102c9c000000ea000000e9004f00de000080fa00ae
:102cac00000006000000fa00530007002e00070089
:102cbc0014000700b00020000080fa00000006009d
:102ccc000000fa00cdfd07002135800000fe2f002a
:102cdc00008060000020a0002035880011368000a4
:102cec00f00f2e008080600000302000010070008a
:102cfc0010368800b6fd0700c00020000080fa00e6
:102d0c00000006000000fa002135800000fe2f00b4
:102d1c0000806000203588003135800000fe2f00d7
:102d2c00008060000010a000303588000136800063
:102d3c00f00f2e0080806000003020000100700039
:102d4c000036880081368000f00f2e0080806000f5
:102d5c00005020000100700080368800d000200058
:102d6c000080fa00000006000000fa00c082a900f2
:102d7c00c0e2a900c122a800c142a900c922a80032
:102d8c00c8a2a800c8c2a800c8e2a800c902a8002e
:102d9c00c9c2a900c9e2a900d042a800d062a8000b
:102dac00d082a800d0a2a800d0c2a900d0e2a9006d
:102dbc00d102a900d122a900c722a800ce02a800e6
:102dcc00ce42a800ce82a800cea2a800cec2a800f7
:102ddc00cee2a800cf02a800cf22a800d602a800fd
:102dec00d662a800d682a800d6a2a800e0002000d7
:102dfc000080fa00000006000000fa000080eb00e2
:102e0c00601988002c03a9002c23a8002c43a800cf
:102e1c002c63a8002c83a8002ca3a8002cc3a90009
:102e2c002ce3a8002d03a8002d23a8002d43a800f7
:0c2e3c00f00020000080fa0000000600fa
:020000040000fa
:102e4800000800000e00000000000000e00800007c
:102e580004000000020000003f3e000000000000e7
:102e6800a40800003c000000000000000e0800005c
:102e78000e00000000000000ec0800000200000046
:102e88000200000004000000e40800000400000044
:102e980000000000e8080000040000000200000034
:102ea8000000e800080000001c080000880000007e
:102eb8000200000001000000004208004308420030
:102ec80008420800420842000832080000000000da
:102ed80000000000000000000000000000000000ea
:102ee80000000000000000000002080001016a0064
:102ef800086b08006a086a00086a08006a085a002d
:102f080008000000000000000000000000000000b1
:102f180000000000000000000000000000000200a7
:102f28000802020092089300089208009208920092
:102f3800089208008208000000000000000000005d
:102f48000000000000000000000000000000000079
:102f5800000000001c084400086c08000000000085
:102f6800000000000000000000000000ee08000063
:102f78000200000000000000f0080000020000004d
:102f88000200000001000000f2080000020000003a
:082f9800000000000000000031
:020000040000fa
:102fa0000000fa0011028000f0f12f0000806000a4
:102fb000100288000080fa00000006000000fa00fd
:102fc00011028000000e2000010070001002880035
:102fd0000080fa00000006000000fa009460a800db
:102fe0009580a8009560a80097e0a80097c0a80069
:102ff0009c20a8009c40a80021068000f0f82f002b
:10300000808060000005200001007000200688001c
:1030100041058000f0ff28000080600000e0a00073
:10302000400588005105800080ff2f00008060006f
:103030003000b3005005880021068000f08f2f007b
:103040008080600000502000010070002006880091
:1030500091058000f08f2f000080600000a0a0008c
:103060009005880091058000f0ff280080806000b6
:1030700000002300010070009005880021058000f9
:10308000f0ff28000080600000d0a000200588002c
:103090000080fa00000006000000fa009580a900f8
:1030a0009c20a9009560a9000080fa00000006009d
:1030b0000000fa0097e0a9009c40a90097c0a90071
:1030c0000080fa00000006000000fa0095a0a900a8
:1030d0000080fa00000006000000fa009460a900d9
:1030e0000080fa00000006000200fa00313a800079
:1030f00000e02f0000806000e001b300303a88005b
:10310000213a800000fe2f0000806000203a8800f5
:10311000213a8000f0f32f0000806000203a880000
:1031200030002000000f78001e017800800720008a
:10313000a10920003374200080497800814978007b
:1031400082497800103a8000000178000200a00057
:10315000600420007105200023742000804978005d
:10316000814978008249780000000000103a800010
:10317000610060000000e000fcff3a000000000079
:10318000113a8000000027008080600000002300ca
:10319000808f5000faff3a00a00020000080fa0063
:1031a000000006000000fa0011198000f0ff210065
:1031b0000080600000d0a0001019880000c2b30099
:1031c00024e3b70025e3a90011198000f0cf2f00f8
:1031d00000806000101988004119800000fe2f0057
:1031e000008060006000b3004019880028e3a90057
:1031f00001198000000e20000100700000198800f5
:1032000021198000f00f2e00008060000080a000d7
:10321000201988002143a90001198000f0cf2f0058
:1032200000806000001988002043a80021e3a80066
:103230000080fa00000006000000fa000000000014
:1032400000198000610060000000e000fcff320017
:10325000001880000080fa00000006000000fa005c
:10326000f1e3a800f1a3a900f183a800f103a900ec
:10327000811f800000f82f00808060001004200073
:1032800001007000801f8800f3e3a900f2e3a800aa
:10329000f2a3a800f343a900f243a800f223a80078
:1032a0000080fa00000006000200fa00000f78001b
:1032b0001e00780010007800b01f88000080fa001f
:0432c0000000060004
:020000040000fa
:1032c400f03fb1000180b10006003500ee030900b3
:1032d40000000000403fb1000180b100fbff3d0051
:1032e4001000b000203fb00002003500008009004b
:0832f4000000000000000600cc
:020000040000fa
:1032fc000000fa0023fc070078ff070069fe0700b6
:10330c00e7fb0700a4ff070030ff070010002000b8
:08331c00c0408800ffff3700ec
:020000040000fa
:0200000401f009
:04000c0000000000f0
:020000040000fa
:0200000401f009
:04001000610000008b
:020000040000fa
:0200000401f009
:04001800f6000000ee
:00000001FF
